{
  "contractName": "EventFactory",
  "abi": [
    {
      "inputs": [
        {
          "internalType": "string",
          "name": "eventName",
          "type": "string"
        },
        {
          "internalType": "string",
          "name": "eventDescription",
          "type": "string"
        },
        {
          "internalType": "int256",
          "name": "longtitude",
          "type": "int256"
        },
        {
          "internalType": "int256",
          "name": "latitude",
          "type": "int256"
        },
        {
          "internalType": "int256",
          "name": "eventTimestamp",
          "type": "int256"
        },
        {
          "internalType": "int256",
          "name": "eventCapacity",
          "type": "int256"
        }
      ],
      "name": "createEvent",
      "outputs": [],
      "stateMutability": "nonpayable",
      "type": "function"
    },
    {
      "inputs": [],
      "name": "getDeployedEvents",
      "outputs": [
        {
          "components": [
            {
              "internalType": "string",
              "name": "_eventName",
              "type": "string"
            },
            {
              "internalType": "string",
              "name": "_eventDescription",
              "type": "string"
            },
            {
              "internalType": "address",
              "name": "_eventAdress",
              "type": "address"
            },
            {
              "internalType": "int256",
              "name": "_longtitude",
              "type": "int256"
            },
            {
              "internalType": "int256",
              "name": "_latitude",
              "type": "int256"
            },
            {
              "internalType": "int256",
              "name": "_eventTimestamp",
              "type": "int256"
            },
            {
              "internalType": "int256",
              "name": "_eventCapacity",
              "type": "int256"
            }
          ],
          "internalType": "struct EventFactory.eventProperties[]",
          "name": "",
          "type": "tuple[]"
        }
      ],
      "stateMutability": "view",
      "type": "function"
    },
    {
      "inputs": [
        {
          "internalType": "address",
          "name": "organizerAddress",
          "type": "address"
        }
      ],
      "name": "getEventsByOrganizer",
      "outputs": [
        {
          "internalType": "contract Event[]",
          "name": "",
          "type": "address[]"
        }
      ],
      "stateMutability": "view",
      "type": "function"
    }
  ],
  "bytecode": "0x608060405234801561001057600080fd5b50612568806100206000396000f3fe60806040523480156200001157600080fd5b5060043610620000465760003560e01c80633812783e146200004b57806384c032bd146200006d5780639f6271c3146200008d575b600080fd5b62000055620000c3565b604051620000649190620009f8565b60405180910390f35b6200008b600480360381019062000085919062000bb2565b6200035e565b005b620000ab6004803603810190620000a5919062000cbd565b6200056f565b604051620000ba919062000e17565b60405180910390f35b60606000620000d360006200063e565b905060008167ffffffffffffffff811115620000f457620000f362000a3a565b5b6040519080825280602002602001820160405280156200013157816020015b6200011d62000662565b815260200190600190039081620001135790505b50905060005b8281101562000355576001600060018362000153919062000e74565b81526020019081526020016000206040518060e00160405290816000820180546200017e9062000f00565b80601f0160208091040260200160405190810160405280929190818152602001828054620001ac9062000f00565b8015620001fd5780601f10620001d157610100808354040283529160200191620001fd565b820191906000526020600020905b815481529060010190602001808311620001df57829003601f168201915b50505050508152602001600182018054620002189062000f00565b80601f0160208091040260200160405190810160405280929190818152602001828054620002469062000f00565b8015620002975780601f106200026b5761010080835404028352916020019162000297565b820191906000526020600020905b8154815290600101906020018083116200027957829003601f168201915b505050505081526020016002820160009054906101000a900473ffffffffffffffffffffffffffffffffffffffff1673ffffffffffffffffffffffffffffffffffffffff1673ffffffffffffffffffffffffffffffffffffffff16815260200160038201548152602001600482015481526020016005820154815260200160068201548152505082828151811062000334576200033362000f35565b5b602002602001018190525080806200034c9062000f64565b91505062000137565b50809250505090565b6200036a60006200064c565b60006200037860006200063e565b9050600081336040516200038c90620006b5565b6200039992919062000fd3565b604051809103906000f080158015620003b6573d6000803e3d6000fd5b5090506040518060e001604052808981526020018881526020018273ffffffffffffffffffffffffffffffffffffffff1681526020018781526020018681526020018581526020018481525060016000848152602001908152602001600020600082015181600001908051906020019062000433929190620006c3565b50602082015181600101908051906020019062000452929190620006c3565b5060408201518160020160006101000a81548173ffffffffffffffffffffffffffffffffffffffff021916908373ffffffffffffffffffffffffffffffffffffffff160217905550606082015181600301556080820151816004015560a0820151816005015560c08201518160060155905050600260003373ffffffffffffffffffffffffffffffffffffffff1673ffffffffffffffffffffffffffffffffffffffff168152602001908152602001600020819080600181540180825580915050600190039060005260206000200160009091909190916101000a81548173ffffffffffffffffffffffffffffffffffffffff021916908373ffffffffffffffffffffffffffffffffffffffff1602179055505050505050505050565b6060600260008373ffffffffffffffffffffffffffffffffffffffff1673ffffffffffffffffffffffffffffffffffffffff1681526020019081526020016000208054806020026020016040519081016040528092919081815260200182805480156200063257602002820191906000526020600020905b8160009054906101000a900473ffffffffffffffffffffffffffffffffffffffff1673ffffffffffffffffffffffffffffffffffffffff1681526020019060010190808311620005e7575b50505050509050919050565b600081600001549050919050565b6001816000016000828254019250508190555050565b6040518060e001604052806060815260200160608152602001600073ffffffffffffffffffffffffffffffffffffffff168152602001600081526020016000815260200160008152602001600081525090565b611532806200100183390190565b828054620006d19062000f00565b90600052602060002090601f016020900481019282620006f5576000855562000741565b82601f106200071057805160ff191683800117855562000741565b8280016001018555821562000741579182015b828111156200074057825182559160200191906001019062000723565b5b50905062000750919062000754565b5090565b5b808211156200076f57600081600090555060010162000755565b5090565b600081519050919050565b600082825260208201905092915050565b6000819050602082019050919050565b600081519050919050565b600082825260208201905092915050565b60005b83811015620007db578082015181840152602081019050620007be565b83811115620007eb576000848401525b50505050565b6000601f19601f8301169050919050565b60006200080f826200079f565b6200081b8185620007aa565b93506200082d818560208601620007bb565b6200083881620007f1565b840191505092915050565b600073ffffffffffffffffffffffffffffffffffffffff82169050919050565b6000620008708262000843565b9050919050565b620008828162000863565b82525050565b6000819050919050565b6200089d8162000888565b82525050565b600060e0830160008301518482036000860152620008c2828262000802565b91505060208301518482036020860152620008de828262000802565b9150506040830151620008f5604086018262000877565b5060608301516200090a606086018262000892565b5060808301516200091f608086018262000892565b5060a08301516200093460a086018262000892565b5060c08301516200094960c086018262000892565b508091505092915050565b6000620009628383620008a3565b905092915050565b6000602082019050919050565b6000620009848262000773565b6200099081856200077e565b935083602082028501620009a4856200078f565b8060005b85811015620009e65784840389528151620009c4858262000954565b9450620009d1836200096a565b925060208a01995050600181019050620009a8565b50829750879550505050505092915050565b6000602082019050818103600083015262000a14818462000977565b905092915050565b6000604051905090565b600080fd5b600080fd5b600080fd5b600080fd5b7f4e487b7100000000000000000000000000000000000000000000000000000000600052604160045260246000fd5b62000a7482620007f1565b810181811067ffffffffffffffff8211171562000a965762000a9562000a3a565b5b80604052505050565b600062000aab62000a1c565b905062000ab9828262000a69565b919050565b600067ffffffffffffffff82111562000adc5762000adb62000a3a565b5b62000ae782620007f1565b9050602081019050919050565b82818337600083830152505050565b600062000b1a62000b148462000abe565b62000a9f565b90508281526020810184848401111562000b395762000b3862000a35565b5b62000b4684828562000af4565b509392505050565b600082601f83011262000b665762000b6562000a30565b5b813562000b7884826020860162000b03565b91505092915050565b62000b8c8162000888565b811462000b9857600080fd5b50565b60008135905062000bac8162000b81565b92915050565b60008060008060008060c0878903121562000bd25762000bd162000a26565b5b600087013567ffffffffffffffff81111562000bf35762000bf262000a2b565b5b62000c0189828a0162000b4e565b965050602087013567ffffffffffffffff81111562000c255762000c2462000a2b565b5b62000c3389828a0162000b4e565b955050604062000c4689828a0162000b9b565b945050606062000c5989828a0162000b9b565b935050608062000c6c89828a0162000b9b565b92505060a062000c7f89828a0162000b9b565b9150509295509295509295565b62000c978162000863565b811462000ca357600080fd5b50565b60008135905062000cb78162000c8c565b92915050565b60006020828403121562000cd65762000cd562000a26565b5b600062000ce68482850162000ca6565b91505092915050565b600081519050919050565b600082825260208201905092915050565b6000819050602082019050919050565b6000819050919050565b600062000d4662000d4062000d3a8462000843565b62000d1b565b62000843565b9050919050565b600062000d5a8262000d25565b9050919050565b600062000d6e8262000d4d565b9050919050565b62000d808162000d61565b82525050565b600062000d94838362000d75565b60208301905092915050565b6000602082019050919050565b600062000dba8262000cef565b62000dc6818562000cfa565b935062000dd38362000d0b565b8060005b8381101562000e0a57815162000dee888262000d86565b975062000dfb8362000da0565b92505060018101905062000dd7565b5085935050505092915050565b6000602082019050818103600083015262000e33818462000dad565b905092915050565b6000819050919050565b7f4e487b7100000000000000000000000000000000000000000000000000000000600052601160045260246000fd5b600062000e818262000e3b565b915062000e8e8362000e3b565b9250827fffffffffffffffffffffffffffffffffffffffffffffffffffffffffffffffff0382111562000ec65762000ec562000e45565b5b828201905092915050565b7f4e487b7100000000000000000000000000000000000000000000000000000000600052602260045260246000fd5b6000600282049050600182168062000f1957607f821691505b60208210810362000f2f5762000f2e62000ed1565b5b50919050565b7f4e487b7100000000000000000000000000000000000000000000000000000000600052603260045260246000fd5b600062000f718262000e3b565b91507fffffffffffffffffffffffffffffffffffffffffffffffffffffffffffffffff820362000fa65762000fa562000e45565b5b600182019050919050565b62000fbc8162000e3b565b82525050565b62000fcd8162000863565b82525050565b600060408201905062000fea600083018562000fb1565b62000ff9602083018462000fc2565b939250505056fe60806040523480156200001157600080fd5b50604051620015323803806200153283398181016040528101906200003791906200012c565b8160008190555080600160006101000a81548173ffffffffffffffffffffffffffffffffffffffff021916908373ffffffffffffffffffffffffffffffffffffffff160217905550505062000173565b600080fd5b6000819050919050565b620000a1816200008c565b8114620000ad57600080fd5b50565b600081519050620000c18162000096565b92915050565b600073ffffffffffffffffffffffffffffffffffffffff82169050919050565b6000620000f482620000c7565b9050919050565b6200010681620000e7565b81146200011257600080fd5b50565b6000815190506200012681620000fb565b92915050565b6000806040838503121562000146576200014562000087565b5b60006200015685828601620000b0565b9250506020620001698582860162000115565b9150509250929050565b6113af80620001836000396000f3fe60806040526004361061007b5760003560e01c806365e35bc91161004e57806365e35bc91461013a57806384b275c31461015657806393c8fd651461018157806397806112146101c35761007b565b806301033db51461008057806303e96fe3146100a957806322e4ce71146100d45780632c307155146100fd575b600080fd5b34801561008c57600080fd5b506100a760048036038101906100a29190610cac565b6101ee565b005b3480156100b557600080fd5b506100be610388565b6040516100cb9190610e75565b60405180910390f35b3480156100e057600080fd5b506100fb60048036038101906100f69190610e97565b6104cc565b005b34801561010957600080fd5b50610124600480360381019061011f9190610ed7565b6104f8565b6040516101319190610f13565b60405180910390f35b610154600480360381019061014f9190610ed7565b6106b0565b005b34801561016257600080fd5b5061016b6108d9565b6040516101789190610f13565b60405180910390f35b34801561018d57600080fd5b506101a860048036038101906101a39190610ed7565b6108df565b6040516101ba96959493929190610f4c565b60405180910390f35b3480156101cf57600080fd5b506101d8610978565b6040516101e59190610fad565b60405180910390f35b60006101f9826104f8565b90508215156004828154811061021257610211610fc8565b5b906000526020600020906006020160050160009054906101000a900460ff16151514610273576040517f08c379a000000000000000000000000000000000000000000000000000000000815260040161026a9061107a565b60405180910390fd5b3373ffffffffffffffffffffffffffffffffffffffff166004828154811061029e5761029d610fc8565b5b906000526020600020906006020160030160009054906101000a900473ffffffffffffffffffffffffffffffffffffffff1673ffffffffffffffffffffffffffffffffffffffff1614610326576040517f08c379a000000000000000000000000000000000000000000000000000000000815260040161031d9061110c565b60405180910390fd5b826004828154811061033b5761033a610fc8565b5b906000526020600020906006020160050160006101000a81548160ff021916908315150217905550821561037857610373600361099e565b610383565b61038260036109fa565b5b505050565b60606004805480602002602001604051908101604052809291908181526020016000905b828210156104c357838290600052602060002090600602016040518060c001604052908160008201548152602001600182015481526020016002820160009054906101000a900473ffffffffffffffffffffffffffffffffffffffff1673ffffffffffffffffffffffffffffffffffffffff1673ffffffffffffffffffffffffffffffffffffffff1681526020016003820160009054906101000a900473ffffffffffffffffffffffffffffffffffffffff1673ffffffffffffffffffffffffffffffffffffffff1673ffffffffffffffffffffffffffffffffffffffff168152602001600482015481526020016005820160009054906101000a900460ff161515151581525050815260200190600101906103ac565b50505050905090565b60005b818110156104f3576104e083610a10565b80806104eb9061115b565b9150506104cf565b505050565b6000610502610bd5565b60005b60048054905081101561066f57836004828154811061052757610526610fc8565b5b9060005260206000209060060201600001540361065c576004818154811061055257610551610fc8565b5b90600052602060002090600602016040518060c001604052908160008201548152602001600182015481526020016002820160009054906101000a900473ffffffffffffffffffffffffffffffffffffffff1673ffffffffffffffffffffffffffffffffffffffff1673ffffffffffffffffffffffffffffffffffffffff1681526020016003820160009054906101000a900473ffffffffffffffffffffffffffffffffffffffff1673ffffffffffffffffffffffffffffffffffffffff1673ffffffffffffffffffffffffffffffffffffffff168152602001600482015481526020016005820160009054906101000a900460ff161515151581525050915080925050506106ab565b80806106679061115b565b915050610505565b506040517f08c379a00000000000000000000000000000000000000000000000000000000081526004016106a2906111ef565b60405180910390fd5b919050565b60006106bb826104f8565b905060011515600482815481106106d5576106d4610fc8565b5b906000526020600020906006020160050160009054906101000a900460ff16151514610736576040517f08c379a000000000000000000000000000000000000000000000000000000000815260040161072d9061125b565b60405180910390fd5b6004818154811061074a57610749610fc8565b5b906000526020600020906006020160040154341461079d576040517f08c379a0000000000000000000000000000000000000000000000000000000008152600401610794906112ed565b60405180910390fd5b600481815481106107b1576107b0610fc8565b5b906000526020600020906006020160030160009054906101000a900473ffffffffffffffffffffffffffffffffffffffff1673ffffffffffffffffffffffffffffffffffffffff166108fc349081150290604051600060405180830381858888f19350505050158015610828573d6000803e3d6000fd5b50336004828154811061083e5761083d610fc8565b5b906000526020600020906006020160030160006101000a81548173ffffffffffffffffffffffffffffffffffffffff021916908373ffffffffffffffffffffffffffffffffffffffff1602179055506000600482815481106108a3576108a2610fc8565b5b906000526020600020906006020160050160006101000a81548160ff0219169083151502179055506108d560036109fa565b5050565b60005481565b600481815481106108ef57600080fd5b90600052602060002090600602016000915090508060000154908060010154908060020160009054906101000a900473ffffffffffffffffffffffffffffffffffffffff16908060030160009054906101000a900473ffffffffffffffffffffffffffffffffffffffff16908060040154908060050160009054906101000a900460ff16905086565b600160009054906101000a900473ffffffffffffffffffffffffffffffffffffffff1681565b600081600001549050600081116109ea576040517f08c379a00000000000000000000000000000000000000000000000000000000081526004016109e190611359565b60405180910390fd5b6001810382600001819055505050565b6001816000016000828254019250508190555050565b610a1a60026109fa565b60006040518060c00160405280610a316002610bc7565b81526020016000548152602001600160009054906101000a900473ffffffffffffffffffffffffffffffffffffffff1673ffffffffffffffffffffffffffffffffffffffff168152602001600160009054906101000a900473ffffffffffffffffffffffffffffffffffffffff1673ffffffffffffffffffffffffffffffffffffffff1681526020018381526020016001151581525090506004819080600181540180825580915050600190039060005260206000209060060201600090919091909150600082015181600001556020820151816001015560408201518160020160006101000a81548173ffffffffffffffffffffffffffffffffffffffff021916908373ffffffffffffffffffffffffffffffffffffffff16021790555060608201518160030160006101000a81548173ffffffffffffffffffffffffffffffffffffffff021916908373ffffffffffffffffffffffffffffffffffffffff1602179055506080820151816004015560a08201518160050160006101000a81548160ff02191690831515021790555050505050565b600081600001549050919050565b6040518060c001604052806000815260200160008152602001600073ffffffffffffffffffffffffffffffffffffffff168152602001600073ffffffffffffffffffffffffffffffffffffffff168152602001600081526020016000151581525090565b600080fd5b60008115159050919050565b610c5381610c3e565b8114610c5e57600080fd5b50565b600081359050610c7081610c4a565b92915050565b6000819050919050565b610c8981610c76565b8114610c9457600080fd5b50565b600081359050610ca681610c80565b92915050565b60008060408385031215610cc357610cc2610c39565b5b6000610cd185828601610c61565b9250506020610ce285828601610c97565b9150509250929050565b600081519050919050565b600082825260208201905092915050565b6000819050602082019050919050565b610d2181610c76565b82525050565b600073ffffffffffffffffffffffffffffffffffffffff82169050919050565b6000610d5282610d27565b9050919050565b610d6281610d47565b82525050565b610d7181610c3e565b82525050565b60c082016000820151610d8d6000850182610d18565b506020820151610da06020850182610d18565b506040820151610db36040850182610d59565b506060820151610dc66060850182610d59565b506080820151610dd96080850182610d18565b5060a0820151610dec60a0850182610d68565b50505050565b6000610dfe8383610d77565b60c08301905092915050565b6000602082019050919050565b6000610e2282610cec565b610e2c8185610cf7565b9350610e3783610d08565b8060005b83811015610e68578151610e4f8882610df2565b9750610e5a83610e0a565b925050600181019050610e3b565b5085935050505092915050565b60006020820190508181036000830152610e8f8184610e17565b905092915050565b60008060408385031215610eae57610ead610c39565b5b6000610ebc85828601610c97565b9250506020610ecd85828601610c97565b9150509250929050565b600060208284031215610eed57610eec610c39565b5b6000610efb84828501610c97565b91505092915050565b610f0d81610c76565b82525050565b6000602082019050610f286000830184610f04565b92915050565b610f3781610d47565b82525050565b610f4681610c3e565b82525050565b600060c082019050610f616000830189610f04565b610f6e6020830188610f04565b610f7b6040830187610f2e565b610f886060830186610f2e565b610f956080830185610f04565b610fa260a0830184610f3d565b979650505050505050565b6000602082019050610fc26000830184610f2e565b92915050565b7f4e487b7100000000000000000000000000000000000000000000000000000000600052603260045260246000fd5b600082825260208201905092915050565b7f4572726f723a20596f752063616e6e6f74206368616e6765207469636b65742060008201527f737461746520746f207468652073616d65207374617465000000000000000000602082015250565b6000611064603783610ff7565b915061106f82611008565b604082019050919050565b6000602082019050818103600083015261109381611057565b9050919050565b7f4572726f723a2043616e6e6f74206368616e6765207469636b65742073616c6560008201527f2073746174652c2077726f6e6720757365720000000000000000000000000000602082015250565b60006110f6603283610ff7565b91506111018261109a565b604082019050919050565b60006020820190508181036000830152611125816110e9565b9050919050565b7f4e487b7100000000000000000000000000000000000000000000000000000000600052601160045260246000fd5b600061116682610c76565b91507fffffffffffffffffffffffffffffffffffffffffffffffffffffffffffffffff82036111985761119761112c565b5b600182019050919050565b7f5469636b6574206e6f7420666f756e6400000000000000000000000000000000600082015250565b60006111d9601083610ff7565b91506111e4826111a3565b602082019050919050565b60006020820190508181036000830152611208816111cc565b9050919050565b7f4572726f723a205469636b6574206973206e6f74206f6e2073616c652e000000600082015250565b6000611245601d83610ff7565b91506112508261120f565b602082019050919050565b6000602082019050818103600083015261127481611238565b9050919050565b7f4572726f723a205469636b6574207061796d656e74206973206e6f742065717560008201527f616c20746f207469636b657420636f73742e0000000000000000000000000000602082015250565b60006112d7603283610ff7565b91506112e28261127b565b604082019050919050565b60006020820190508181036000830152611306816112ca565b9050919050565b7f436f756e7465723a2064656372656d656e74206f766572666c6f770000000000600082015250565b6000611343601b83610ff7565b915061134e8261130d565b602082019050919050565b6000602082019050818103600083015261137281611336565b905091905056fea26469706673582212207f842cbe157bc2a32ff81c48c1b31665f17f3e0b55aa5fc6ba16fe69992ec33764736f6c634300080d0033a26469706673582212206338360a11b99a1517dbf687bc8666999fb8e524ecb686c1cc0efcff40cd55bb64736f6c634300080d0033",
  "immutableReferences": {},
  "source": "// SPDX-License-Identifier: MIT\npragma solidity ^0.8.4;\n\nimport \"@openzeppelin/contracts/utils/Counters.sol\";\n\ncontract EventFactory {\n\n    using Counters for Counters.Counter;\n    Counters.Counter private _eventID;//keep track of event ids\n\n    struct eventProperties {\n        string _eventName;\n        string _eventDescription;\n        address _eventAdress;\n        int _longtitude;\n        int _latitude;\n        int _eventTimestamp;\n        int _eventCapacity;\n    }\n\n    mapping(uint256 => eventProperties) private idToEvent;\n\n    mapping(address => Event[]) private organizerToEvent;\n\n    function createEvent( string memory eventName, string memory eventDescription, int longtitude, int latitude, int eventTimestamp, int eventCapacity) public {\n        _eventID.increment();\n        uint256 currEventID = _eventID.current();\n        Event newEvent = new Event(currEventID, msg.sender);\n        \n        idToEvent[currEventID] = eventProperties({\n            _eventName: eventName,\n            _eventDescription: eventDescription,\n            _eventAdress: address(newEvent),\n            _longtitude: longtitude,\n            _latitude: latitude,\n            _eventTimestamp: eventTimestamp,\n            _eventCapacity: eventCapacity\n        });\n\n        organizerToEvent[msg.sender].push(newEvent);\n\n    }\n\n    function getDeployedEvents() public view  returns (eventProperties[] memory) {\n        uint256 totalEvents = _eventID.current();\n        eventProperties[] memory events = new eventProperties[](totalEvents);\n        for (uint i=0; i<totalEvents; i++) {\n            events[i] = idToEvent[i+1];\n        }\n        return events;\n    }\n\n    function getEventsByOrganizer(address organizerAddress) public view returns(Event[] memory) {\n        return organizerToEvent[organizerAddress];\n    }\n\n}\n\ncontract Event{\n\n    uint256 public _eventID;\n    address public _organizerAddress;\n    using Counters for Counters.Counter;\n    Counters.Counter private _ticketIds;\n    Counters.Counter private _ticketsSold;\n    Ticket[] public _ticketList;\n\n    struct Ticket {\n        uint _ticketID;\n        uint _eventID;\n        address _organizer;\n        address _owner;\n        uint _ticketCost;\n        bool _onSale;\n    }\n    //name description capacity eventdate location price\n    constructor (uint256 eventID, address creator) {\n        _eventID = eventID;\n        _organizerAddress = creator;\n    }\n\n    function createTicketsByAmount(uint ticketCost, uint ticketAmount) public {\n        for (uint i = 0; i < ticketAmount; i++)\n        {\n            createTicket(ticketCost);\n        }\n    }\n\n    //create a single ticket\n    function createTicket(uint ticketCost) private {\n        _ticketIds.increment();\n        Ticket memory newTicket = Ticket({\n            _ticketID: _ticketIds.current(),\n            _eventID: _eventID,\n            _organizer: _organizerAddress,//owner is manager of the vent at ticket creation\n            _owner: _organizerAddress,\n            _ticketCost: ticketCost,\n            _onSale: true\n        });\n\n        _ticketList.push(newTicket);\n    }\n\n    function buy_ticket(uint ticketID) public payable\n    {\n        uint foundTicketIndex = getTicketIndexById(ticketID);\n\n        require(_ticketList[foundTicketIndex]._onSale == true, \"Error: Ticket is not on sale.\");//check if buyer can buy the ticket\n        require(msg.value == _ticketList[foundTicketIndex]._ticketCost, \"Error: Ticket payment is not equal to ticket cost.\");\n\n        payable(_ticketList[foundTicketIndex]._owner).transfer(msg.value);//transfer money to current owner\n        _ticketList[foundTicketIndex]._owner = msg.sender;//change owner to buyer\n        _ticketList[foundTicketIndex]._onSale = false;\n        _ticketsSold.increment();\n    }\n\n    function setTicketSale(bool saleFlag, uint ticketID) public {\n        uint foundTicketIndex = getTicketIndexById(ticketID);\n\n        require(_ticketList[foundTicketIndex]._onSale == saleFlag, \"Error: You cannot change ticket state to the same state\");//restriced checks it\n        require(_ticketList[foundTicketIndex]._owner == msg.sender, \"Error: Cannot change ticket sale state, wrong user\");//restriced checks it\n\n        _ticketList[foundTicketIndex]._onSale = saleFlag;\n\n        if (saleFlag) {\n            _ticketsSold.decrement();\n        } else {\n            _ticketsSold.increment();\n        }\n    }\n\n    function getAllTickets() public view returns(Ticket[] memory) {\n        return _ticketList;\n    }\n\n    //this is used instead of returning ticket, because solidity does not allow editing storage variable with memory variable. or I didnt manage it\n    function getTicketIndexById(uint ticketID) public view returns(uint){\n        Ticket memory foundTicket;\n         for (uint i = 0; i < _ticketList.length; i++) {//find ticket index by id\n            if(_ticketList[i]._ticketID == ticketID)\n            {\n                foundTicket = _ticketList[i];\n                return i;\n            }\n        }\n\n        revert(\"Ticket not found\");\n    }\n}\n",
  "sourcePath": "/Users/mertture/Desktop/Courses/4.1/CS48K1/memorinda/ethereum/contracts/EventFactory.sol",
  "compiler": {
    "name": "solc",
    "version": "0.8.13+commit.abaa5c0e.Emscripten.clang"
  },
  "schemaVersion": "3.4.7",
  "updatedAt": "2022-05-14T23:09:37.703Z",
  "devdoc": {
    "kind": "dev",
    "methods": {},
    "version": 1
  },
  "userdoc": {
    "kind": "user",
    "methods": {},
    "version": 1
  }
}