{
  "contractName": "Event",
  "abi": [
    {
      "inputs": [
        {
          "internalType": "uint256",
          "name": "eventID",
          "type": "uint256"
        },
        {
          "internalType": "address",
          "name": "creator",
          "type": "address"
        }
      ],
      "stateMutability": "nonpayable",
      "type": "constructor"
    },
    {
      "inputs": [],
      "name": "_eventID",
      "outputs": [
        {
          "internalType": "uint256",
          "name": "",
          "type": "uint256"
        }
      ],
      "stateMutability": "view",
      "type": "function"
    },
    {
      "inputs": [],
      "name": "_organizerAddress",
      "outputs": [
        {
          "internalType": "address",
          "name": "",
          "type": "address"
        }
      ],
      "stateMutability": "view",
      "type": "function"
    },
    {
      "inputs": [
        {
          "internalType": "uint256",
          "name": "",
          "type": "uint256"
        }
      ],
      "name": "_ticketList",
      "outputs": [
        {
          "internalType": "uint256",
          "name": "_ticketID",
          "type": "uint256"
        },
        {
          "internalType": "uint256",
          "name": "_eventID",
          "type": "uint256"
        },
        {
          "internalType": "address",
          "name": "_organizer",
          "type": "address"
        },
        {
          "internalType": "address",
          "name": "_owner",
          "type": "address"
        },
        {
          "internalType": "uint256",
          "name": "_ticketCost",
          "type": "uint256"
        },
        {
          "internalType": "bool",
          "name": "_onSale",
          "type": "bool"
        }
      ],
      "stateMutability": "view",
      "type": "function"
    },
    {
      "inputs": [
        {
          "internalType": "uint256",
          "name": "ticketCost",
          "type": "uint256"
        },
        {
          "internalType": "uint256",
          "name": "ticketAmount",
          "type": "uint256"
        }
      ],
      "name": "createTicketsByAmount",
      "outputs": [],
      "stateMutability": "nonpayable",
      "type": "function"
    },
    {
      "inputs": [
        {
          "internalType": "uint256",
          "name": "ticketID",
          "type": "uint256"
        }
      ],
      "name": "buy_ticket",
      "outputs": [],
      "stateMutability": "payable",
      "type": "function"
    },
    {
      "inputs": [
        {
          "internalType": "bool",
          "name": "saleFlag",
          "type": "bool"
        },
        {
          "internalType": "uint256",
          "name": "ticketID",
          "type": "uint256"
        }
      ],
      "name": "setTicketSale",
      "outputs": [],
      "stateMutability": "nonpayable",
      "type": "function"
    },
    {
      "inputs": [],
      "name": "getAllTickets",
      "outputs": [
        {
          "components": [
            {
              "internalType": "uint256",
              "name": "_ticketID",
              "type": "uint256"
            },
            {
              "internalType": "uint256",
              "name": "_eventID",
              "type": "uint256"
            },
            {
              "internalType": "address",
              "name": "_organizer",
              "type": "address"
            },
            {
              "internalType": "address",
              "name": "_owner",
              "type": "address"
            },
            {
              "internalType": "uint256",
              "name": "_ticketCost",
              "type": "uint256"
            },
            {
              "internalType": "bool",
              "name": "_onSale",
              "type": "bool"
            }
          ],
          "internalType": "struct Event.Ticket[]",
          "name": "",
          "type": "tuple[]"
        }
      ],
      "stateMutability": "view",
      "type": "function"
    },
    {
      "inputs": [
        {
          "internalType": "uint256",
          "name": "ticketID",
          "type": "uint256"
        }
      ],
      "name": "getTicketIndexById",
      "outputs": [
        {
          "internalType": "uint256",
          "name": "",
          "type": "uint256"
        }
      ],
      "stateMutability": "view",
      "type": "function"
    }
  ],
  "bytecode": "0x60806040523480156200001157600080fd5b50604051620015323803806200153283398181016040528101906200003791906200012c565b8160008190555080600160006101000a81548173ffffffffffffffffffffffffffffffffffffffff021916908373ffffffffffffffffffffffffffffffffffffffff160217905550505062000173565b600080fd5b6000819050919050565b620000a1816200008c565b8114620000ad57600080fd5b50565b600081519050620000c18162000096565b92915050565b600073ffffffffffffffffffffffffffffffffffffffff82169050919050565b6000620000f482620000c7565b9050919050565b6200010681620000e7565b81146200011257600080fd5b50565b6000815190506200012681620000fb565b92915050565b6000806040838503121562000146576200014562000087565b5b60006200015685828601620000b0565b9250506020620001698582860162000115565b9150509250929050565b6113af80620001836000396000f3fe60806040526004361061007b5760003560e01c806365e35bc91161004e57806365e35bc91461013a57806384b275c31461015657806393c8fd651461018157806397806112146101c35761007b565b806301033db51461008057806303e96fe3146100a957806322e4ce71146100d45780632c307155146100fd575b600080fd5b34801561008c57600080fd5b506100a760048036038101906100a29190610cac565b6101ee565b005b3480156100b557600080fd5b506100be610388565b6040516100cb9190610e75565b60405180910390f35b3480156100e057600080fd5b506100fb60048036038101906100f69190610e97565b6104cc565b005b34801561010957600080fd5b50610124600480360381019061011f9190610ed7565b6104f8565b6040516101319190610f13565b60405180910390f35b610154600480360381019061014f9190610ed7565b6106b0565b005b34801561016257600080fd5b5061016b6108d9565b6040516101789190610f13565b60405180910390f35b34801561018d57600080fd5b506101a860048036038101906101a39190610ed7565b6108df565b6040516101ba96959493929190610f4c565b60405180910390f35b3480156101cf57600080fd5b506101d8610978565b6040516101e59190610fad565b60405180910390f35b60006101f9826104f8565b90508215156004828154811061021257610211610fc8565b5b906000526020600020906006020160050160009054906101000a900460ff16151514610273576040517f08c379a000000000000000000000000000000000000000000000000000000000815260040161026a9061107a565b60405180910390fd5b3373ffffffffffffffffffffffffffffffffffffffff166004828154811061029e5761029d610fc8565b5b906000526020600020906006020160030160009054906101000a900473ffffffffffffffffffffffffffffffffffffffff1673ffffffffffffffffffffffffffffffffffffffff1614610326576040517f08c379a000000000000000000000000000000000000000000000000000000000815260040161031d9061110c565b60405180910390fd5b826004828154811061033b5761033a610fc8565b5b906000526020600020906006020160050160006101000a81548160ff021916908315150217905550821561037857610373600361099e565b610383565b61038260036109fa565b5b505050565b60606004805480602002602001604051908101604052809291908181526020016000905b828210156104c357838290600052602060002090600602016040518060c001604052908160008201548152602001600182015481526020016002820160009054906101000a900473ffffffffffffffffffffffffffffffffffffffff1673ffffffffffffffffffffffffffffffffffffffff1673ffffffffffffffffffffffffffffffffffffffff1681526020016003820160009054906101000a900473ffffffffffffffffffffffffffffffffffffffff1673ffffffffffffffffffffffffffffffffffffffff1673ffffffffffffffffffffffffffffffffffffffff168152602001600482015481526020016005820160009054906101000a900460ff161515151581525050815260200190600101906103ac565b50505050905090565b60005b818110156104f3576104e083610a10565b80806104eb9061115b565b9150506104cf565b505050565b6000610502610bd5565b60005b60048054905081101561066f57836004828154811061052757610526610fc8565b5b9060005260206000209060060201600001540361065c576004818154811061055257610551610fc8565b5b90600052602060002090600602016040518060c001604052908160008201548152602001600182015481526020016002820160009054906101000a900473ffffffffffffffffffffffffffffffffffffffff1673ffffffffffffffffffffffffffffffffffffffff1673ffffffffffffffffffffffffffffffffffffffff1681526020016003820160009054906101000a900473ffffffffffffffffffffffffffffffffffffffff1673ffffffffffffffffffffffffffffffffffffffff1673ffffffffffffffffffffffffffffffffffffffff168152602001600482015481526020016005820160009054906101000a900460ff161515151581525050915080925050506106ab565b80806106679061115b565b915050610505565b506040517f08c379a00000000000000000000000000000000000000000000000000000000081526004016106a2906111ef565b60405180910390fd5b919050565b60006106bb826104f8565b905060011515600482815481106106d5576106d4610fc8565b5b906000526020600020906006020160050160009054906101000a900460ff16151514610736576040517f08c379a000000000000000000000000000000000000000000000000000000000815260040161072d9061125b565b60405180910390fd5b6004818154811061074a57610749610fc8565b5b906000526020600020906006020160040154341461079d576040517f08c379a0000000000000000000000000000000000000000000000000000000008152600401610794906112ed565b60405180910390fd5b600481815481106107b1576107b0610fc8565b5b906000526020600020906006020160030160009054906101000a900473ffffffffffffffffffffffffffffffffffffffff1673ffffffffffffffffffffffffffffffffffffffff166108fc349081150290604051600060405180830381858888f19350505050158015610828573d6000803e3d6000fd5b50336004828154811061083e5761083d610fc8565b5b906000526020600020906006020160030160006101000a81548173ffffffffffffffffffffffffffffffffffffffff021916908373ffffffffffffffffffffffffffffffffffffffff1602179055506000600482815481106108a3576108a2610fc8565b5b906000526020600020906006020160050160006101000a81548160ff0219169083151502179055506108d560036109fa565b5050565b60005481565b600481815481106108ef57600080fd5b90600052602060002090600602016000915090508060000154908060010154908060020160009054906101000a900473ffffffffffffffffffffffffffffffffffffffff16908060030160009054906101000a900473ffffffffffffffffffffffffffffffffffffffff16908060040154908060050160009054906101000a900460ff16905086565b600160009054906101000a900473ffffffffffffffffffffffffffffffffffffffff1681565b600081600001549050600081116109ea576040517f08c379a00000000000000000000000000000000000000000000000000000000081526004016109e190611359565b60405180910390fd5b6001810382600001819055505050565b6001816000016000828254019250508190555050565b610a1a60026109fa565b60006040518060c00160405280610a316002610bc7565b81526020016000548152602001600160009054906101000a900473ffffffffffffffffffffffffffffffffffffffff1673ffffffffffffffffffffffffffffffffffffffff168152602001600160009054906101000a900473ffffffffffffffffffffffffffffffffffffffff1673ffffffffffffffffffffffffffffffffffffffff1681526020018381526020016001151581525090506004819080600181540180825580915050600190039060005260206000209060060201600090919091909150600082015181600001556020820151816001015560408201518160020160006101000a81548173ffffffffffffffffffffffffffffffffffffffff021916908373ffffffffffffffffffffffffffffffffffffffff16021790555060608201518160030160006101000a81548173ffffffffffffffffffffffffffffffffffffffff021916908373ffffffffffffffffffffffffffffffffffffffff1602179055506080820151816004015560a08201518160050160006101000a81548160ff02191690831515021790555050505050565b600081600001549050919050565b6040518060c001604052806000815260200160008152602001600073ffffffffffffffffffffffffffffffffffffffff168152602001600073ffffffffffffffffffffffffffffffffffffffff168152602001600081526020016000151581525090565b600080fd5b60008115159050919050565b610c5381610c3e565b8114610c5e57600080fd5b50565b600081359050610c7081610c4a565b92915050565b6000819050919050565b610c8981610c76565b8114610c9457600080fd5b50565b600081359050610ca681610c80565b92915050565b60008060408385031215610cc357610cc2610c39565b5b6000610cd185828601610c61565b9250506020610ce285828601610c97565b9150509250929050565b600081519050919050565b600082825260208201905092915050565b6000819050602082019050919050565b610d2181610c76565b82525050565b600073ffffffffffffffffffffffffffffffffffffffff82169050919050565b6000610d5282610d27565b9050919050565b610d6281610d47565b82525050565b610d7181610c3e565b82525050565b60c082016000820151610d8d6000850182610d18565b506020820151610da06020850182610d18565b506040820151610db36040850182610d59565b506060820151610dc66060850182610d59565b506080820151610dd96080850182610d18565b5060a0820151610dec60a0850182610d68565b50505050565b6000610dfe8383610d77565b60c08301905092915050565b6000602082019050919050565b6000610e2282610cec565b610e2c8185610cf7565b9350610e3783610d08565b8060005b83811015610e68578151610e4f8882610df2565b9750610e5a83610e0a565b925050600181019050610e3b565b5085935050505092915050565b60006020820190508181036000830152610e8f8184610e17565b905092915050565b60008060408385031215610eae57610ead610c39565b5b6000610ebc85828601610c97565b9250506020610ecd85828601610c97565b9150509250929050565b600060208284031215610eed57610eec610c39565b5b6000610efb84828501610c97565b91505092915050565b610f0d81610c76565b82525050565b6000602082019050610f286000830184610f04565b92915050565b610f3781610d47565b82525050565b610f4681610c3e565b82525050565b600060c082019050610f616000830189610f04565b610f6e6020830188610f04565b610f7b6040830187610f2e565b610f886060830186610f2e565b610f956080830185610f04565b610fa260a0830184610f3d565b979650505050505050565b6000602082019050610fc26000830184610f2e565b92915050565b7f4e487b7100000000000000000000000000000000000000000000000000000000600052603260045260246000fd5b600082825260208201905092915050565b7f4572726f723a20596f752063616e6e6f74206368616e6765207469636b65742060008201527f737461746520746f207468652073616d65207374617465000000000000000000602082015250565b6000611064603783610ff7565b915061106f82611008565b604082019050919050565b6000602082019050818103600083015261109381611057565b9050919050565b7f4572726f723a2043616e6e6f74206368616e6765207469636b65742073616c6560008201527f2073746174652c2077726f6e6720757365720000000000000000000000000000602082015250565b60006110f6603283610ff7565b91506111018261109a565b604082019050919050565b60006020820190508181036000830152611125816110e9565b9050919050565b7f4e487b7100000000000000000000000000000000000000000000000000000000600052601160045260246000fd5b600061116682610c76565b91507fffffffffffffffffffffffffffffffffffffffffffffffffffffffffffffffff82036111985761119761112c565b5b600182019050919050565b7f5469636b6574206e6f7420666f756e6400000000000000000000000000000000600082015250565b60006111d9601083610ff7565b91506111e4826111a3565b602082019050919050565b60006020820190508181036000830152611208816111cc565b9050919050565b7f4572726f723a205469636b6574206973206e6f74206f6e2073616c652e000000600082015250565b6000611245601d83610ff7565b91506112508261120f565b602082019050919050565b6000602082019050818103600083015261127481611238565b9050919050565b7f4572726f723a205469636b6574207061796d656e74206973206e6f742065717560008201527f616c20746f207469636b657420636f73742e0000000000000000000000000000602082015250565b60006112d7603283610ff7565b91506112e28261127b565b604082019050919050565b60006020820190508181036000830152611306816112ca565b9050919050565b7f436f756e7465723a2064656372656d656e74206f766572666c6f770000000000600082015250565b6000611343601b83610ff7565b915061134e8261130d565b602082019050919050565b6000602082019050818103600083015261137281611336565b905091905056fea26469706673582212207f842cbe157bc2a32ff81c48c1b31665f17f3e0b55aa5fc6ba16fe69992ec33764736f6c634300080d0033",
  "immutableReferences": {},
  "source": "// SPDX-License-Identifier: MIT\npragma solidity ^0.8.4;\n\nimport \"@openzeppelin/contracts/utils/Counters.sol\";\n\ncontract EventFactory {\n\n    using Counters for Counters.Counter;\n    Counters.Counter private _eventID;//keep track of event ids\n\n    struct eventProperties {\n        string _eventName;\n        string _eventDescription;\n        address _eventAdress;\n        int _longtitude;\n        int _latitude;\n        int _eventTimestamp;\n        int _eventCapacity;\n    }\n\n    mapping(uint256 => eventProperties) private idToEvent;\n\n    mapping(address => Event[]) private organizerToEvent;\n\n    function createEvent( string memory eventName, string memory eventDescription, int longtitude, int latitude, int eventTimestamp, int eventCapacity) public {\n        _eventID.increment();\n        uint256 currEventID = _eventID.current();\n        Event newEvent = new Event(currEventID, msg.sender);\n        \n        idToEvent[currEventID] = eventProperties({\n            _eventName: eventName,\n            _eventDescription: eventDescription,\n            _eventAdress: address(newEvent),\n            _longtitude: longtitude,\n            _latitude: latitude,\n            _eventTimestamp: eventTimestamp,\n            _eventCapacity: eventCapacity\n        });\n\n        organizerToEvent[msg.sender].push(newEvent);\n\n    }\n\n    function getDeployedEvents() public view  returns (eventProperties[] memory) {\n        uint256 totalEvents = _eventID.current();\n        eventProperties[] memory events = new eventProperties[](totalEvents);\n        for (uint i=0; i<totalEvents; i++) {\n            events[i] = idToEvent[i+1];\n        }\n        return events;\n    }\n\n    function getEventsByOrganizer(address organizerAddress) public view returns(Event[] memory) {\n        return organizerToEvent[organizerAddress];\n    }\n\n}\n\ncontract Event{\n\n    uint256 public _eventID;\n    address public _organizerAddress;\n    using Counters for Counters.Counter;\n    Counters.Counter private _ticketIds;\n    Counters.Counter private _ticketsSold;\n    Ticket[] public _ticketList;\n\n    struct Ticket {\n        uint _ticketID;\n        uint _eventID;\n        address _organizer;\n        address _owner;\n        uint _ticketCost;\n        bool _onSale;\n    }\n    //name description capacity eventdate location price\n    constructor (uint256 eventID, address creator) {\n        _eventID = eventID;\n        _organizerAddress = creator;\n    }\n\n    function createTicketsByAmount(uint ticketCost, uint ticketAmount) public {\n        for (uint i = 0; i < ticketAmount; i++)\n        {\n            createTicket(ticketCost);\n        }\n    }\n\n    //create a single ticket\n    function createTicket(uint ticketCost) private {\n        _ticketIds.increment();\n        Ticket memory newTicket = Ticket({\n            _ticketID: _ticketIds.current(),\n            _eventID: _eventID,\n            _organizer: _organizerAddress,//owner is manager of the vent at ticket creation\n            _owner: _organizerAddress,\n            _ticketCost: ticketCost,\n            _onSale: true\n        });\n\n        _ticketList.push(newTicket);\n    }\n\n    function buy_ticket(uint ticketID) public payable\n    {\n        uint foundTicketIndex = getTicketIndexById(ticketID);\n\n        require(_ticketList[foundTicketIndex]._onSale == true, \"Error: Ticket is not on sale.\");//check if buyer can buy the ticket\n        require(msg.value == _ticketList[foundTicketIndex]._ticketCost, \"Error: Ticket payment is not equal to ticket cost.\");\n\n        payable(_ticketList[foundTicketIndex]._owner).transfer(msg.value);//transfer money to current owner\n        _ticketList[foundTicketIndex]._owner = msg.sender;//change owner to buyer\n        _ticketList[foundTicketIndex]._onSale = false;\n        _ticketsSold.increment();\n    }\n\n    function setTicketSale(bool saleFlag, uint ticketID) public {\n        uint foundTicketIndex = getTicketIndexById(ticketID);\n\n        require(_ticketList[foundTicketIndex]._onSale == saleFlag, \"Error: You cannot change ticket state to the same state\");//restriced checks it\n        require(_ticketList[foundTicketIndex]._owner == msg.sender, \"Error: Cannot change ticket sale state, wrong user\");//restriced checks it\n\n        _ticketList[foundTicketIndex]._onSale = saleFlag;\n\n        if (saleFlag) {\n            _ticketsSold.decrement();\n        } else {\n            _ticketsSold.increment();\n        }\n    }\n\n    function getAllTickets() public view returns(Ticket[] memory) {\n        return _ticketList;\n    }\n\n    //this is used instead of returning ticket, because solidity does not allow editing storage variable with memory variable. or I didnt manage it\n    function getTicketIndexById(uint ticketID) public view returns(uint){\n        Ticket memory foundTicket;\n         for (uint i = 0; i < _ticketList.length; i++) {//find ticket index by id\n            if(_ticketList[i]._ticketID == ticketID)\n            {\n                foundTicket = _ticketList[i];\n                return i;\n            }\n        }\n\n        revert(\"Ticket not found\");\n    }\n}\n",
  "sourcePath": "/Users/mertture/Desktop/Courses/4.1/CS48K1/memorinda/ethereum/contracts/EventFactory.sol",
  "compiler": {
    "name": "solc",
    "version": "0.8.13+commit.abaa5c0e.Emscripten.clang"
  },
  "schemaVersion": "3.4.7",
  "updatedAt": "2022-05-14T23:09:37.701Z",
  "devdoc": {
    "kind": "dev",
    "methods": {},
    "version": 1
  },
  "userdoc": {
    "kind": "user",
    "methods": {},
    "version": 1
  }
}