{
  "contractName": "EventFactory",
  "abi": [
    {
      "inputs": [
        {
          "internalType": "string",
          "name": "eventName",
          "type": "string"
        },
        {
          "internalType": "string",
          "name": "eventDescription",
          "type": "string"
        },
        {
          "internalType": "int256",
          "name": "longtitude",
          "type": "int256"
        },
        {
          "internalType": "int256",
          "name": "latitude",
          "type": "int256"
        },
        {
          "internalType": "int256",
          "name": "eventTimestamp",
          "type": "int256"
        },
        {
          "internalType": "int256",
          "name": "eventCapacity",
          "type": "int256"
        }
      ],
      "name": "createEvent",
      "outputs": [],
      "stateMutability": "nonpayable",
      "type": "function"
    },
    {
      "inputs": [],
      "name": "getDeployedEvents",
      "outputs": [
        {
          "components": [
            {
              "internalType": "string",
              "name": "_eventName",
              "type": "string"
            },
            {
              "internalType": "string",
              "name": "_eventDescription",
              "type": "string"
            },
            {
              "internalType": "address",
              "name": "_eventAdress",
              "type": "address"
            },
            {
              "internalType": "int256",
              "name": "_longtitude",
              "type": "int256"
            },
            {
              "internalType": "int256",
              "name": "_latitude",
              "type": "int256"
            },
            {
              "internalType": "int256",
              "name": "_eventTimestamp",
              "type": "int256"
            },
            {
              "internalType": "int256",
              "name": "_eventCapacity",
              "type": "int256"
            }
          ],
          "internalType": "struct EventFactory.eventProperties[]",
          "name": "",
          "type": "tuple[]"
        }
      ],
      "stateMutability": "view",
      "type": "function",
      "constant": true
    }
  ],
  "bytecode": "0x608060405234801561001057600080fd5b50612c48806100206000396000f3fe60806040523480156200001157600080fd5b50600436106200003a5760003560e01c80633812783e146200003f57806384c032bd1462000061575b600080fd5b6200004962000081565b60405162000058919062000847565b60405180910390f35b6200007f600480360381019062000079919062000a01565b6200031c565b005b606060006200009160006200048d565b905060008167ffffffffffffffff811115620000b257620000b162000889565b5b604051908082528060200260200182016040528015620000ef57816020015b620000db620004b1565b815260200190600190039081620000d15790505b50905060005b8281101562000313576001600060018362000111919062000b14565b81526020019081526020016000206040518060e00160405290816000820180546200013c9062000ba0565b80601f01602080910402602001604051908101604052809291908181526020018280546200016a9062000ba0565b8015620001bb5780601f106200018f57610100808354040283529160200191620001bb565b820191906000526020600020905b8154815290600101906020018083116200019d57829003601f168201915b50505050508152602001600182018054620001d69062000ba0565b80601f0160208091040260200160405190810160405280929190818152602001828054620002049062000ba0565b8015620002555780601f10620002295761010080835404028352916020019162000255565b820191906000526020600020905b8154815290600101906020018083116200023757829003601f168201915b505050505081526020016002820160009054906101000a900473ffffffffffffffffffffffffffffffffffffffff1673ffffffffffffffffffffffffffffffffffffffff1673ffffffffffffffffffffffffffffffffffffffff168152602001600382015481526020016004820154815260200160058201548152602001600682015481525050828281518110620002f257620002f162000bd5565b5b602002602001018190525080806200030a9062000c04565b915050620000f5565b50809250505090565b6200032860006200049b565b60006200033660006200048d565b9050600081336040516200034a9062000504565b6200035792919062000c73565b604051809103906000f08015801562000374573d6000803e3d6000fd5b5090506040518060e001604052808981526020018881526020018273ffffffffffffffffffffffffffffffffffffffff16815260200187815260200186815260200185815260200184815250600160008481526020019081526020016000206000820151816000019080519060200190620003f192919062000512565b5060208201518160010190805190602001906200041092919062000512565b5060408201518160020160006101000a81548173ffffffffffffffffffffffffffffffffffffffff021916908373ffffffffffffffffffffffffffffffffffffffff160217905550606082015181600301556080820151816004015560a0820151816005015560c082015181600601559050505050505050505050565b600081600001549050919050565b6001816000016000828254019250508190555050565b6040518060e001604052806060815260200160608152602001600073ffffffffffffffffffffffffffffffffffffffff168152602001600081526020016000815260200160008152602001600081525090565b611f728062000ca183390190565b828054620005209062000ba0565b90600052602060002090601f01602090048101928262000544576000855562000590565b82601f106200055f57805160ff191683800117855562000590565b8280016001018555821562000590579182015b828111156200058f57825182559160200191906001019062000572565b5b5090506200059f9190620005a3565b5090565b5b80821115620005be576000816000905550600101620005a4565b5090565b600081519050919050565b600082825260208201905092915050565b6000819050602082019050919050565b600081519050919050565b600082825260208201905092915050565b60005b838110156200062a5780820151818401526020810190506200060d565b838111156200063a576000848401525b50505050565b6000601f19601f8301169050919050565b60006200065e82620005ee565b6200066a8185620005f9565b93506200067c8185602086016200060a565b620006878162000640565b840191505092915050565b600073ffffffffffffffffffffffffffffffffffffffff82169050919050565b6000620006bf8262000692565b9050919050565b620006d181620006b2565b82525050565b6000819050919050565b620006ec81620006d7565b82525050565b600060e083016000830151848203600086015262000711828262000651565b915050602083015184820360208601526200072d828262000651565b9150506040830151620007446040860182620006c6565b506060830151620007596060860182620006e1565b5060808301516200076e6080860182620006e1565b5060a08301516200078360a0860182620006e1565b5060c08301516200079860c0860182620006e1565b508091505092915050565b6000620007b18383620006f2565b905092915050565b6000602082019050919050565b6000620007d382620005c2565b620007df8185620005cd565b935083602082028501620007f385620005de565b8060005b85811015620008355784840389528151620008138582620007a3565b94506200082083620007b9565b925060208a01995050600181019050620007f7565b50829750879550505050505092915050565b60006020820190508181036000830152620008638184620007c6565b905092915050565b6000604051905090565b600080fd5b600080fd5b600080fd5b600080fd5b7f4e487b7100000000000000000000000000000000000000000000000000000000600052604160045260246000fd5b620008c38262000640565b810181811067ffffffffffffffff82111715620008e557620008e462000889565b5b80604052505050565b6000620008fa6200086b565b9050620009088282620008b8565b919050565b600067ffffffffffffffff8211156200092b576200092a62000889565b5b620009368262000640565b9050602081019050919050565b82818337600083830152505050565b60006200096962000963846200090d565b620008ee565b90508281526020810184848401111562000988576200098762000884565b5b6200099584828562000943565b509392505050565b600082601f830112620009b557620009b46200087f565b5b8135620009c784826020860162000952565b91505092915050565b620009db81620006d7565b8114620009e757600080fd5b50565b600081359050620009fb81620009d0565b92915050565b60008060008060008060c0878903121562000a215762000a2062000875565b5b600087013567ffffffffffffffff81111562000a425762000a416200087a565b5b62000a5089828a016200099d565b965050602087013567ffffffffffffffff81111562000a745762000a736200087a565b5b62000a8289828a016200099d565b955050604062000a9589828a01620009ea565b945050606062000aa889828a01620009ea565b935050608062000abb89828a01620009ea565b92505060a062000ace89828a01620009ea565b9150509295509295509295565b6000819050919050565b7f4e487b7100000000000000000000000000000000000000000000000000000000600052601160045260246000fd5b600062000b218262000adb565b915062000b2e8362000adb565b9250827fffffffffffffffffffffffffffffffffffffffffffffffffffffffffffffffff0382111562000b665762000b6562000ae5565b5b828201905092915050565b7f4e487b7100000000000000000000000000000000000000000000000000000000600052602260045260246000fd5b6000600282049050600182168062000bb957607f821691505b60208210810362000bcf5762000bce62000b71565b5b50919050565b7f4e487b7100000000000000000000000000000000000000000000000000000000600052603260045260246000fd5b600062000c118262000adb565b91507fffffffffffffffffffffffffffffffffffffffffffffffffffffffffffffffff820362000c465762000c4562000ae5565b5b600182019050919050565b62000c5c8162000adb565b82525050565b62000c6d81620006b2565b82525050565b600060408201905062000c8a600083018562000c51565b62000c99602083018462000c62565b939250505056fe60806040523480156200001157600080fd5b5060405162001f7238038062001f7283398181016040528101906200003791906200012c565b8160008190555080600160006101000a81548173ffffffffffffffffffffffffffffffffffffffff021916908373ffffffffffffffffffffffffffffffffffffffff160217905550505062000173565b600080fd5b6000819050919050565b620000a1816200008c565b8114620000ad57600080fd5b50565b600081519050620000c18162000096565b92915050565b600073ffffffffffffffffffffffffffffffffffffffff82169050919050565b6000620000f482620000c7565b9050919050565b6200010681620000e7565b81146200011257600080fd5b50565b6000815190506200012681620000fb565b92915050565b6000806040838503121562000146576200014562000087565b5b60006200015685828601620000b0565b9250506020620001698582860162000115565b9150509250929050565b611def80620001836000396000f3fe6080604052600436106100dd5760003560e01c806384b275c31161007f578063bc468acd11610059578063bc468acd146102bd578063e99f1ca7146102e6578063ef27d1d21461030f578063fcfffcd11461034c576100dd565b806384b275c31461022557806393c8fd65146102505780639780611214610292576100dd565b806322e4ce71116100bb57806322e4ce71146101785780632c307155146101a157806365e35bc9146101de578063790108f4146101fa576100dd565b806301033db5146100e257806303e96fe31461010b57806307858c4614610136575b600080fd5b3480156100ee57600080fd5b5061010960048036038101906101049190611312565b610368565b005b34801561011757600080fd5b50610120610502565b60405161012d91906114db565b60405180910390f35b34801561014257600080fd5b5061015d600480360381019061015891906114fd565b610646565b60405161016f96959493929190611557565b60405180910390f35b34801561018457600080fd5b5061019f600480360381019061019a91906115b8565b6106df565b005b3480156101ad57600080fd5b506101c860048036038101906101c391906114fd565b61070b565b6040516101d591906115f8565b60405180910390f35b6101f860048036038101906101f391906114fd565b6107a9565b005b34801561020657600080fd5b5061020f6109d2565b60405161021c919061173d565b60405180910390f35b34801561023157600080fd5b5061023a610b16565b60405161024791906115f8565b60405180910390f35b34801561025c57600080fd5b50610277600480360381019061027291906114fd565b610b1c565b60405161028996959493929190611557565b60405180910390f35b34801561029e57600080fd5b506102a7610bb5565b6040516102b4919061175f565b60405180910390f35b3480156102c957600080fd5b506102e460048036038101906102df9190611312565b610bdb565b005b3480156102f257600080fd5b5061030d600480360381019061030891906115b8565b610d75565b005b34801561031b57600080fd5b50610336600480360381019061033191906114fd565b610da1565b60405161034391906115f8565b60405180910390f35b610366600480360381019061036191906114fd565b610e3f565b005b60006103738261070b565b90508215156004828154811061038c5761038b61177a565b5b906000526020600020906006020160050160009054906101000a900460ff161515146103ed576040517f08c379a00000000000000000000000000000000000000000000000000000000081526004016103e49061182c565b60405180910390fd5b3373ffffffffffffffffffffffffffffffffffffffff16600482815481106104185761041761177a565b5b906000526020600020906006020160030160009054906101000a900473ffffffffffffffffffffffffffffffffffffffff1673ffffffffffffffffffffffffffffffffffffffff16146104a0576040517f08c379a0000000000000000000000000000000000000000000000000000000008152600401610497906118be565b60405180910390fd5b82600482815481106104b5576104b461177a565b5b906000526020600020906006020160050160006101000a81548160ff02191690831515021790555082156104f2576104ed6003611068565b6104fd565b6104fc60036110c4565b5b505050565b60606004805480602002602001604051908101604052809291908181526020016000905b8282101561063d57838290600052602060002090600602016040518060c001604052908160008201548152602001600182015481526020016002820160009054906101000a900473ffffffffffffffffffffffffffffffffffffffff1673ffffffffffffffffffffffffffffffffffffffff1673ffffffffffffffffffffffffffffffffffffffff1681526020016003820160009054906101000a900473ffffffffffffffffffffffffffffffffffffffff1673ffffffffffffffffffffffffffffffffffffffff1673ffffffffffffffffffffffffffffffffffffffff168152602001600482015481526020016005820160009054906101000a900460ff16151515158152505081526020019060010190610526565b50505050905090565b6007818154811061065657600080fd5b90600052602060002090600602016000915090508060000154908060010154908060020160009054906101000a900473ffffffffffffffffffffffffffffffffffffffff16908060030160009054906101000a900473ffffffffffffffffffffffffffffffffffffffff16908060040154908060050160009054906101000a900460ff16905086565b60005b81811015610706576106f3836110da565b80806106fe9061190d565b9150506106e2565b505050565b600080600090505b6004805490508110156107685782600482815481106107355761073461177a565b5b9060005260206000209060060201600001540361075557809150506107a4565b80806107609061190d565b915050610713565b506040517f08c379a000000000000000000000000000000000000000000000000000000000815260040161079b906119a1565b60405180910390fd5b919050565b60006107b48261070b565b905060011515600482815481106107ce576107cd61177a565b5b906000526020600020906006020160050160009054906101000a900460ff1615151461082f576040517f08c379a000000000000000000000000000000000000000000000000000000000815260040161082690611a0d565b60405180910390fd5b600481815481106108435761084261177a565b5b9060005260206000209060060201600401543414610896576040517f08c379a000000000000000000000000000000000000000000000000000000000815260040161088d90611a9f565b60405180910390fd5b600481815481106108aa576108a961177a565b5b906000526020600020906006020160030160009054906101000a900473ffffffffffffffffffffffffffffffffffffffff1673ffffffffffffffffffffffffffffffffffffffff166108fc349081150290604051600060405180830381858888f19350505050158015610921573d6000803e3d6000fd5b5033600482815481106109375761093661177a565b5b906000526020600020906006020160030160006101000a81548173ffffffffffffffffffffffffffffffffffffffff021916908373ffffffffffffffffffffffffffffffffffffffff16021790555060006004828154811061099c5761099b61177a565b5b906000526020600020906006020160050160006101000a81548160ff0219169083151502179055506109ce60036110c4565b5050565b60606007805480602002602001604051908101604052809291908181526020016000905b82821015610b0d57838290600052602060002090600602016040518060c001604052908160008201548152602001600182015481526020016002820160009054906101000a900473ffffffffffffffffffffffffffffffffffffffff1673ffffffffffffffffffffffffffffffffffffffff1673ffffffffffffffffffffffffffffffffffffffff1681526020016003820160009054906101000a900473ffffffffffffffffffffffffffffffffffffffff1673ffffffffffffffffffffffffffffffffffffffff1673ffffffffffffffffffffffffffffffffffffffff168152602001600482015481526020016005820160009054906101000a900460ff161515151581525050815260200190600101906109f6565b50505050905090565b60005481565b60048181548110610b2c57600080fd5b90600052602060002090600602016000915090508060000154908060010154908060020160009054906101000a900473ffffffffffffffffffffffffffffffffffffffff16908060030160009054906101000a900473ffffffffffffffffffffffffffffffffffffffff16908060040154908060050160009054906101000a900460ff16905086565b600160009054906101000a900473ffffffffffffffffffffffffffffffffffffffff1681565b6000610be682610da1565b905082151560078281548110610bff57610bfe61177a565b5b906000526020600020906006020160050160009054906101000a900460ff16151514610c60576040517f08c379a0000000000000000000000000000000000000000000000000000000008152600401610c5790611b31565b60405180910390fd5b3373ffffffffffffffffffffffffffffffffffffffff1660078281548110610c8b57610c8a61177a565b5b906000526020600020906006020160030160009054906101000a900473ffffffffffffffffffffffffffffffffffffffff1673ffffffffffffffffffffffffffffffffffffffff1614610d13576040517f08c379a0000000000000000000000000000000000000000000000000000000008152600401610d0a90611bc3565b60405180910390fd5b8260078281548110610d2857610d2761177a565b5b906000526020600020906006020160050160006101000a81548160ff0219169083151502179055508215610d6557610d606006611068565b610d70565b610d6f60066110c4565b5b505050565b60005b81811015610d9c57610d89836110da565b8080610d949061190d565b915050610d78565b505050565b600080600090505b600780549050811015610dfe578260078281548110610dcb57610dca61177a565b5b90600052602060002090600602016000015403610deb5780915050610e3a565b8080610df69061190d565b915050610da9565b506040517f08c379a0000000000000000000000000000000000000000000000000000000008152600401610e3190611c2f565b60405180910390fd5b919050565b6000610e4a82610da1565b90506001151560078281548110610e6457610e6361177a565b5b906000526020600020906006020160050160009054906101000a900460ff16151514610ec5576040517f08c379a0000000000000000000000000000000000000000000000000000000008152600401610ebc90611c9b565b60405180910390fd5b60078181548110610ed957610ed861177a565b5b9060005260206000209060060201600401543414610f2c576040517f08c379a0000000000000000000000000000000000000000000000000000000008152600401610f2390611d2d565b60405180910390fd5b60078181548110610f4057610f3f61177a565b5b906000526020600020906006020160030160009054906101000a900473ffffffffffffffffffffffffffffffffffffffff1673ffffffffffffffffffffffffffffffffffffffff166108fc349081150290604051600060405180830381858888f19350505050158015610fb7573d6000803e3d6000fd5b503360078281548110610fcd57610fcc61177a565b5b906000526020600020906006020160030160006101000a81548173ffffffffffffffffffffffffffffffffffffffff021916908373ffffffffffffffffffffffffffffffffffffffff1602179055506000600782815481106110325761103161177a565b5b906000526020600020906006020160050160006101000a81548160ff02191690831515021790555061106460066110c4565b5050565b600081600001549050600081116110b4576040517f08c379a00000000000000000000000000000000000000000000000000000000081526004016110ab90611d99565b60405180910390fd5b6001810382600001819055505050565b6001816000016000828254019250508190555050565b6110e460026110c4565b60006040518060c001604052806110fb6002611291565b81526020016000548152602001600160009054906101000a900473ffffffffffffffffffffffffffffffffffffffff1673ffffffffffffffffffffffffffffffffffffffff168152602001600160009054906101000a900473ffffffffffffffffffffffffffffffffffffffff1673ffffffffffffffffffffffffffffffffffffffff1681526020018381526020016001151581525090506004819080600181540180825580915050600190039060005260206000209060060201600090919091909150600082015181600001556020820151816001015560408201518160020160006101000a81548173ffffffffffffffffffffffffffffffffffffffff021916908373ffffffffffffffffffffffffffffffffffffffff16021790555060608201518160030160006101000a81548173ffffffffffffffffffffffffffffffffffffffff021916908373ffffffffffffffffffffffffffffffffffffffff1602179055506080820151816004015560a08201518160050160006101000a81548160ff02191690831515021790555050505050565b600081600001549050919050565b600080fd5b60008115159050919050565b6112b9816112a4565b81146112c457600080fd5b50565b6000813590506112d6816112b0565b92915050565b6000819050919050565b6112ef816112dc565b81146112fa57600080fd5b50565b60008135905061130c816112e6565b92915050565b600080604083850312156113295761132861129f565b5b6000611337858286016112c7565b9250506020611348858286016112fd565b9150509250929050565b600081519050919050565b600082825260208201905092915050565b6000819050602082019050919050565b611387816112dc565b82525050565b600073ffffffffffffffffffffffffffffffffffffffff82169050919050565b60006113b88261138d565b9050919050565b6113c8816113ad565b82525050565b6113d7816112a4565b82525050565b60c0820160008201516113f3600085018261137e565b506020820151611406602085018261137e565b50604082015161141960408501826113bf565b50606082015161142c60608501826113bf565b50608082015161143f608085018261137e565b5060a082015161145260a08501826113ce565b50505050565b600061146483836113dd565b60c08301905092915050565b6000602082019050919050565b600061148882611352565b611492818561135d565b935061149d8361136e565b8060005b838110156114ce5781516114b58882611458565b97506114c083611470565b9250506001810190506114a1565b5085935050505092915050565b600060208201905081810360008301526114f5818461147d565b905092915050565b6000602082840312156115135761151261129f565b5b6000611521848285016112fd565b91505092915050565b611533816112dc565b82525050565b611542816113ad565b82525050565b611551816112a4565b82525050565b600060c08201905061156c600083018961152a565b611579602083018861152a565b6115866040830187611539565b6115936060830186611539565b6115a0608083018561152a565b6115ad60a0830184611548565b979650505050505050565b600080604083850312156115cf576115ce61129f565b5b60006115dd858286016112fd565b92505060206115ee858286016112fd565b9150509250929050565b600060208201905061160d600083018461152a565b92915050565b600081519050919050565b600082825260208201905092915050565b6000819050602082019050919050565b60c082016000820151611655600085018261137e565b506020820151611668602085018261137e565b50604082015161167b60408501826113bf565b50606082015161168e60608501826113bf565b5060808201516116a1608085018261137e565b5060a08201516116b460a08501826113ce565b50505050565b60006116c6838361163f565b60c08301905092915050565b6000602082019050919050565b60006116ea82611613565b6116f4818561161e565b93506116ff8361162f565b8060005b8381101561173057815161171788826116ba565b9750611722836116d2565b925050600181019050611703565b5085935050505092915050565b6000602082019050818103600083015261175781846116df565b905092915050565b60006020820190506117746000830184611539565b92915050565b7f4e487b7100000000000000000000000000000000000000000000000000000000600052603260045260246000fd5b600082825260208201905092915050565b7f4572726f723a20596f752063616e6e6f74206368616e6765207469636b65742060008201527f737461746520746f207468652073616d65207374617465000000000000000000602082015250565b60006118166037836117a9565b9150611821826117ba565b604082019050919050565b6000602082019050818103600083015261184581611809565b9050919050565b7f4572726f723a2043616e6e6f74206368616e6765207469636b65742073616c6560008201527f2073746174652c2077726f6e6720757365720000000000000000000000000000602082015250565b60006118a86032836117a9565b91506118b38261184c565b604082019050919050565b600060208201905081810360008301526118d78161189b565b9050919050565b7f4e487b7100000000000000000000000000000000000000000000000000000000600052601160045260246000fd5b6000611918826112dc565b91507fffffffffffffffffffffffffffffffffffffffffffffffffffffffffffffffff820361194a576119496118de565b5b600182019050919050565b7f5469636b6574206e6f7420666f756e6400000000000000000000000000000000600082015250565b600061198b6010836117a9565b915061199682611955565b602082019050919050565b600060208201905081810360008301526119ba8161197e565b9050919050565b7f4572726f723a205469636b6574206973206e6f74206f6e2073616c652e000000600082015250565b60006119f7601d836117a9565b9150611a02826119c1565b602082019050919050565b60006020820190508181036000830152611a26816119ea565b9050919050565b7f4572726f723a205469636b6574207061796d656e74206973206e6f742065717560008201527f616c20746f207469636b657420636f73742e0000000000000000000000000000602082015250565b6000611a896032836117a9565b9150611a9482611a2d565b604082019050919050565b60006020820190508181036000830152611ab881611a7c565b9050919050565b7f4572726f723a20596f752063616e6e6f74206368616e6765206d656d2073746160008201527f746520746f207468652073616d65207374617465000000000000000000000000602082015250565b6000611b1b6034836117a9565b9150611b2682611abf565b604082019050919050565b60006020820190508181036000830152611b4a81611b0e565b9050919050565b7f4572726f723a2043616e6e6f74206368616e6765206d656d2073616c6520737460008201527f6174652c2077726f6e6720757365720000000000000000000000000000000000602082015250565b6000611bad602f836117a9565b9150611bb882611b51565b604082019050919050565b60006020820190508181036000830152611bdc81611ba0565b9050919050565b7f4d656d6f72696e6461206e6f7420666f756e6400000000000000000000000000600082015250565b6000611c196013836117a9565b9150611c2482611be3565b602082019050919050565b60006020820190508181036000830152611c4881611c0c565b9050919050565b7f4572726f723a204d656d6f72696e6461206973206e6f74206f6e2073616c652e600082015250565b6000611c856020836117a9565b9150611c9082611c4f565b602082019050919050565b60006020820190508181036000830152611cb481611c78565b9050919050565b7f4572726f723a205061796d656e74206973206e6f7420657175616c20746f206d60008201527f656d20636f73742e000000000000000000000000000000000000000000000000602082015250565b6000611d176028836117a9565b9150611d2282611cbb565b604082019050919050565b60006020820190508181036000830152611d4681611d0a565b9050919050565b7f436f756e7465723a2064656372656d656e74206f766572666c6f770000000000600082015250565b6000611d83601b836117a9565b9150611d8e82611d4d565b602082019050919050565b60006020820190508181036000830152611db281611d76565b905091905056fea2646970667358221220af16bab9c2b1a6e6059fd1d63f3eddf55d58be8fa209ba4b0f2a675853ef9f2b64736f6c634300080d0033a2646970667358221220c1359369bd828c5f259e0869c16706f0f30a4ec59551f9058307991ff7b5fe8b64736f6c634300080d0033",
  "immutableReferences": {},
  "source": "// SPDX-License-Identifier: MIT\npragma solidity ^0.8.4;\n\nimport \"@openzeppelin/contracts/utils/Counters.sol\";\n\ncontract EventFactory {\n\n    using Counters for Counters.Counter;\n    Counters.Counter private _eventID;//keep track of event ids\n\n    struct eventProperties {\n        string _eventName;\n        string _eventDescription;\n        address _eventAdress;\n        int _longtitude;\n        int _latitude;\n        int _eventTimestamp;\n        int _eventCapacity;\n    }\n\n    mapping(uint256 => eventProperties) private idToEvent;\n\n    function createEvent( string memory eventName, string memory eventDescription, int longtitude, int latitude, int eventTimestamp, int eventCapacity) public {\n        _eventID.increment();\n        uint256 currEventID = _eventID.current();\n        Event newEvent = new Event(currEventID, msg.sender);\n        idToEvent[currEventID] = eventProperties({\n            _eventName: eventName,\n            _eventDescription: eventDescription,\n            _eventAdress: address(newEvent),\n            _longtitude: longtitude,\n            _latitude: latitude,\n            _eventTimestamp: eventTimestamp,\n            _eventCapacity: eventCapacity\n        });\n    }\n\n    function getDeployedEvents() public view  returns (eventProperties[] memory) {\n        uint256 totalEvents = _eventID.current();\n        eventProperties[] memory events = new eventProperties[](totalEvents);\n        for (uint i=0; i<totalEvents; i++) {\n            events[i] = idToEvent[i+1];\n        }\n        return events;\n    }\n\n}\n\ncontract Event{\n\n    uint256 public _eventID;\n    address public _organizerAddress;\n    using Counters for Counters.Counter;\n\n    Counters.Counter private _ticketIds;\n    Counters.Counter private _ticketsSold;\n    Ticket[] public _ticketList;\n\n    struct Ticket {\n        uint _ticketID;\n        uint _eventID;\n        address _organizer;\n        address _owner;\n        uint _ticketCost;\n        bool _onSale;\n    }\n\n    //name description capacity eventdate location price\n    constructor (uint256 eventID, address creator) {\n        _eventID = eventID;\n        _organizerAddress = creator;\n    }\n\n    /*\n        TICKET FUNCTIONS\n    */\n    function createTicketsByAmount(uint ticketCost, uint ticketAmount) public {\n        for (uint i = 0; i < ticketAmount; i++)\n        {\n            createTicket(ticketCost);\n        }\n    }\n\n    //create a single ticket\n    function createTicket(uint ticketCost) private {\n        _ticketIds.increment();\n        Ticket memory newTicket = Ticket({\n            _ticketID: _ticketIds.current(),\n            _eventID: _eventID,\n            _organizer: _organizerAddress,//owner is manager of the vent at ticket creation\n            _owner: _organizerAddress,\n            _ticketCost: ticketCost,\n            _onSale: true\n        });\n\n        _ticketList.push(newTicket);\n    }\n\n    function buy_ticket(uint ticketID) public payable\n    {\n        uint foundTicketIndex = getTicketIndexById(ticketID);\n\n        require(_ticketList[foundTicketIndex]._onSale == true, \"Error: Ticket is not on sale.\");//check if buyer can buy the ticket\n        require(msg.value == _ticketList[foundTicketIndex]._ticketCost, \"Error: Ticket payment is not equal to ticket cost.\");\n\n        payable(_ticketList[foundTicketIndex]._owner).transfer(msg.value);//transfer money to current owner\n        _ticketList[foundTicketIndex]._owner = msg.sender;//change owner to buyer\n        _ticketList[foundTicketIndex]._onSale = false;\n        _ticketsSold.increment();\n    }\n\n    function setTicketSale(bool saleFlag, uint ticketID) public {\n        uint foundTicketIndex = getTicketIndexById(ticketID);\n\n        require(_ticketList[foundTicketIndex]._onSale == saleFlag, \"Error: You cannot change ticket state to the same state\");//restriced checks it\n        require(_ticketList[foundTicketIndex]._owner == msg.sender, \"Error: Cannot change ticket sale state, wrong user\");//restriced checks it\n\n        _ticketList[foundTicketIndex]._onSale = saleFlag;\n\n        if (saleFlag) {\n            _ticketsSold.decrement();\n        } else {\n            _ticketsSold.increment();\n        }\n    }\n\n    function getAllTickets() public view returns(Ticket[] memory) {\n        return _ticketList;\n    }\n\n    //this is used instead of returning ticket, because solidity does not allow editing storage variable with memory variable. or I didnt manage it\n    function getTicketIndexById(uint ticketID) public view returns(uint){\n         for (uint i = 0; i < _ticketList.length; i++) {//find ticket index by id\n            if(_ticketList[i]._ticketID == ticketID)\n            {\n                return i;\n            }\n        }\n\n        revert(\"Ticket not found\");\n    }\n\n    /*\n        MEMORINDA FUNCTIONS\n    */\n    Counters.Counter private _memorindaIds;\n    Counters.Counter private _memorindaSold;\n    Memorinda[] public _memorindaList;\n\n    struct Memorinda {\n        uint _memID;\n        uint _eventID;\n        address _organizer;\n        address _owner;\n        uint _memCost;\n        bool _onSale;\n    }\n\n    function createMemorindaByAmount(uint price, uint amount) public {\n        for (uint i = 0; i < amount; i++)\n        {\n            createTicket(price);\n        }\n    }\n\n    //create a single ticket\n    function createMemorinda(uint price) private {\n        _memorindaIds.increment();\n        Memorinda memory newMemorinda = Memorinda({\n            _memID: _memorindaIds.current(),\n            _eventID: _eventID,\n            _organizer: _organizerAddress,//owner is manager of the vent at mem creation\n            _owner: _organizerAddress,\n            _memCost: price,\n            _onSale: true\n        });\n\n        _memorindaList.push(newMemorinda);\n    }\n\n    function buy_memorinda(uint memorindaID) public payable\n    {\n        uint foundMemorindaIndex = getMemorindaIndexById(memorindaID);\n\n        require(_memorindaList[foundMemorindaIndex]._onSale == true, \"Error: Memorinda is not on sale.\");//check if buyer can buy the ticket\n        require(msg.value == _memorindaList[foundMemorindaIndex]._memCost, \"Error: Payment is not equal to mem cost.\");\n\n        payable(_memorindaList[foundMemorindaIndex]._owner).transfer(msg.value);//transfer money to current owner\n        _memorindaList[foundMemorindaIndex]._owner = msg.sender;//change owner to buyer\n        _memorindaList[foundMemorindaIndex]._onSale = false;\n        _memorindaSold.increment();\n    }\n\n    function setMemorindaSale(bool saleFlag, uint ticketID) public {\n        uint foundMemorindaIndex = getMemorindaIndexById(ticketID);\n\n        require(_memorindaList[foundMemorindaIndex]._onSale == saleFlag, \"Error: You cannot change mem state to the same state\");//restriced checks it\n        require(_memorindaList[foundMemorindaIndex]._owner == msg.sender, \"Error: Cannot change mem sale state, wrong user\");//restriced checks it\n\n        _memorindaList[foundMemorindaIndex]._onSale = saleFlag;\n\n        if (saleFlag) {\n            _memorindaSold.decrement();\n        } else {\n            _memorindaSold.increment();\n        }\n    }\n\n    function getAllMemorindas() public view returns(Memorinda[] memory) {\n        return _memorindaList;\n    }\n\n    //this is used instead of returning ticket, because solidity does not allow editing storage variable with memory variable. or I didnt manage it\n    function getMemorindaIndexById(uint memorindaID) public view returns(uint){\n         for (uint i = 0; i < _memorindaList.length; i++) {//find ticket index by id\n            if(_memorindaList[i]._memID == memorindaID)\n            {\n                return i;\n            }\n        }\n        revert(\"Memorinda not found\");\n    }\n}\n",
  "sourcePath": "/Users/akali.eren/Desktop/memorinda/ethereum/contracts/EventFactory.sol",
  "compiler": {
    "name": "solc",
    "version": "0.8.13+commit.abaa5c0e.Emscripten.clang"
  },
  "schemaVersion": "3.4.7",
  "updatedAt": "2022-05-14T22:05:10.460Z",
  "networkType": "ethereum",
  "devdoc": {
    "kind": "dev",
    "methods": {},
    "version": 1
  },
  "userdoc": {
    "kind": "user",
    "methods": {},
    "version": 1
  }
}