{
  "contractName": "EventFactory",
  "abi": [
    {
      "inputs": [
        {
          "internalType": "string",
          "name": "eventName",
          "type": "string"
        },
        {
          "internalType": "string",
          "name": "eventDescription",
          "type": "string"
        },
        {
          "internalType": "int256",
          "name": "longtitude",
          "type": "int256"
        },
        {
          "internalType": "int256",
          "name": "latitude",
          "type": "int256"
        },
        {
          "internalType": "int256",
          "name": "eventTimestamp",
          "type": "int256"
        },
        {
          "internalType": "int256",
          "name": "eventCapacity",
          "type": "int256"
        }
      ],
      "name": "createEvent",
      "outputs": [],
      "stateMutability": "nonpayable",
      "type": "function"
    },
    {
      "inputs": [],
      "name": "deployedEventsLength",
      "outputs": [
        {
          "internalType": "uint256",
          "name": "",
          "type": "uint256"
        }
      ],
      "stateMutability": "view",
      "type": "function",
      "constant": true
    },
    {
      "inputs": [],
      "name": "getDeployedEvents",
      "outputs": [
        {
          "components": [
            {
              "internalType": "uint256",
              "name": "_eventID",
              "type": "uint256"
            },
            {
              "internalType": "string",
              "name": "_eventName",
              "type": "string"
            },
            {
              "internalType": "string",
              "name": "_eventDescription",
              "type": "string"
            },
            {
              "internalType": "address",
              "name": "_eventAdress",
              "type": "address"
            },
            {
              "internalType": "int256",
              "name": "_longtitude",
              "type": "int256"
            },
            {
              "internalType": "int256",
              "name": "_latitude",
              "type": "int256"
            },
            {
              "internalType": "int256",
              "name": "_eventTimestamp",
              "type": "int256"
            },
            {
              "internalType": "int256",
              "name": "_eventCapacity",
              "type": "int256"
            }
          ],
          "internalType": "struct EventFactory.eventProperties[]",
          "name": "",
          "type": "tuple[]"
        }
      ],
      "stateMutability": "view",
      "type": "function",
      "constant": true
    },
    {
      "inputs": [
        {
          "internalType": "address",
          "name": "organizerAddress",
          "type": "address"
        }
      ],
      "name": "getEventsByOrganizer",
      "outputs": [
        {
          "internalType": "contract Event[]",
          "name": "",
          "type": "address[]"
        }
      ],
      "stateMutability": "view",
      "type": "function",
      "constant": true
    },
    {
      "inputs": [
        {
          "internalType": "uint256",
          "name": "eventID",
          "type": "uint256"
        }
      ],
      "name": "getEventsByID",
      "outputs": [
        {
          "components": [
            {
              "internalType": "uint256",
              "name": "_eventID",
              "type": "uint256"
            },
            {
              "internalType": "string",
              "name": "_eventName",
              "type": "string"
            },
            {
              "internalType": "string",
              "name": "_eventDescription",
              "type": "string"
            },
            {
              "internalType": "address",
              "name": "_eventAdress",
              "type": "address"
            },
            {
              "internalType": "int256",
              "name": "_longtitude",
              "type": "int256"
            },
            {
              "internalType": "int256",
              "name": "_latitude",
              "type": "int256"
            },
            {
              "internalType": "int256",
              "name": "_eventTimestamp",
              "type": "int256"
            },
            {
              "internalType": "int256",
              "name": "_eventCapacity",
              "type": "int256"
            }
          ],
          "internalType": "struct EventFactory.eventProperties",
          "name": "",
          "type": "tuple"
        }
      ],
      "stateMutability": "view",
      "type": "function",
      "constant": true
    }
  ],
  "bytecode": "0x608060405234801561001057600080fd5b50615aa5806100206000396000f3fe60806040523480156200001157600080fd5b50600436106200005e5760003560e01c80633812783e146200006357806384c032bd14620000855780639f6271c314620000a5578063e15c3a8114620000db578063eeba6b3b14620000fd575b600080fd5b6200006d62000133565b6040516200007c919062000cbf565b60405180910390f35b620000a360048036038101906200009d919062000e79565b620003d9565b005b620000c36004803603810190620000bd919062000f84565b620005f9565b604051620000d29190620010de565b60405180910390f35b620000e5620006c8565b604051620000f4919062001113565b60405180910390f35b6200011b600480360381019062000115919062001161565b620006e0565b6040516200012a91906200125a565b60405180910390f35b60606000620001436000620008cc565b905060008167ffffffffffffffff81111562000164576200016362000d01565b5b604051908082528060200260200182016040528015620001a157816020015b6200018d620008f0565b815260200190600190039081620001835790505b50905060005b82811015620003d05760016000600183620001c39190620012ad565b81526020019081526020016000206040518061010001604052908160008201548152602001600182018054620001f99062001339565b80601f0160208091040260200160405190810160405280929190818152602001828054620002279062001339565b8015620002785780601f106200024c5761010080835404028352916020019162000278565b820191906000526020600020905b8154815290600101906020018083116200025a57829003601f168201915b50505050508152602001600282018054620002939062001339565b80601f0160208091040260200160405190810160405280929190818152602001828054620002c19062001339565b8015620003125780601f10620002e65761010080835404028352916020019162000312565b820191906000526020600020905b815481529060010190602001808311620002f457829003601f168201915b505050505081526020016003820160009054906101000a900473ffffffffffffffffffffffffffffffffffffffff1673ffffffffffffffffffffffffffffffffffffffff1673ffffffffffffffffffffffffffffffffffffffff168152602001600482015481526020016005820154815260200160068201548152602001600782015481525050828281518110620003af57620003ae6200136e565b5b60200260200101819052508080620003c7906200139d565b915050620001a7565b50809250505090565b620003e56000620008da565b6000620003f36000620008cc565b905060008160405162000406906200094b565b62000412919062001113565b604051809103906000f0801580156200042f573d6000803e3d6000fd5b5090506040518061010001604052808381526020018981526020018881526020018273ffffffffffffffffffffffffffffffffffffffff1681526020018781526020018681526020018581526020018481525060016000848152602001908152602001600020600082015181600001556020820151816001019080519060200190620004bd92919062000959565b506040820151816002019080519060200190620004dc92919062000959565b5060608201518160030160006101000a81548173ffffffffffffffffffffffffffffffffffffffff021916908373ffffffffffffffffffffffffffffffffffffffff1602179055506080820151816004015560a0820151816005015560c0820151816006015560e08201518160070155905050600260003373ffffffffffffffffffffffffffffffffffffffff1673ffffffffffffffffffffffffffffffffffffffff168152602001908152602001600020819080600181540180825580915050600190039060005260206000200160009091909190916101000a81548173ffffffffffffffffffffffffffffffffffffffff021916908373ffffffffffffffffffffffffffffffffffffffff1602179055505050505050505050565b6060600260008373ffffffffffffffffffffffffffffffffffffffff1673ffffffffffffffffffffffffffffffffffffffff168152602001908152602001600020805480602002602001604051908101604052809291908181526020018280548015620006bc57602002820191906000526020600020905b8160009054906101000a900473ffffffffffffffffffffffffffffffffffffffff1673ffffffffffffffffffffffffffffffffffffffff168152602001906001019080831162000671575b50505050509050919050565b600080620006d76000620008cc565b90508091505090565b620006ea620008f0565b600160008381526020019081526020016000206040518061010001604052908160008201548152602001600182018054620007259062001339565b80601f0160208091040260200160405190810160405280929190818152602001828054620007539062001339565b8015620007a45780601f106200077857610100808354040283529160200191620007a4565b820191906000526020600020905b8154815290600101906020018083116200078657829003601f168201915b50505050508152602001600282018054620007bf9062001339565b80601f0160208091040260200160405190810160405280929190818152602001828054620007ed9062001339565b80156200083e5780601f1062000812576101008083540402835291602001916200083e565b820191906000526020600020905b8154815290600101906020018083116200082057829003601f168201915b505050505081526020016003820160009054906101000a900473ffffffffffffffffffffffffffffffffffffffff1673ffffffffffffffffffffffffffffffffffffffff1673ffffffffffffffffffffffffffffffffffffffff1681526020016004820154815260200160058201548152602001600682015481526020016007820154815250509050919050565b600081600001549050919050565b6001816000016000828254019250508190555050565b604051806101000160405280600081526020016060815260200160608152602001600073ffffffffffffffffffffffffffffffffffffffff168152602001600081526020016000815260200160008152602001600081525090565b61468580620013eb83390190565b828054620009679062001339565b90600052602060002090601f0160209004810192826200098b5760008555620009d7565b82601f10620009a657805160ff1916838001178555620009d7565b82800160010185558215620009d7579182015b82811115620009d6578251825591602001919060010190620009b9565b5b509050620009e69190620009ea565b5090565b5b8082111562000a05576000816000905550600101620009eb565b5090565b600081519050919050565b600082825260208201905092915050565b6000819050602082019050919050565b6000819050919050565b62000a4a8162000a35565b82525050565b600081519050919050565b600082825260208201905092915050565b60005b8381101562000a8c57808201518184015260208101905062000a6f565b8381111562000a9c576000848401525b50505050565b6000601f19601f8301169050919050565b600062000ac08262000a50565b62000acc818562000a5b565b935062000ade81856020860162000a6c565b62000ae98162000aa2565b840191505092915050565b600073ffffffffffffffffffffffffffffffffffffffff82169050919050565b600062000b218262000af4565b9050919050565b62000b338162000b14565b82525050565b6000819050919050565b62000b4e8162000b39565b82525050565b60006101008301600083015162000b6f600086018262000a3f565b506020830151848203602086015262000b89828262000ab3565b9150506040830151848203604086015262000ba5828262000ab3565b915050606083015162000bbc606086018262000b28565b50608083015162000bd1608086018262000b43565b5060a083015162000be660a086018262000b43565b5060c083015162000bfb60c086018262000b43565b5060e083015162000c1060e086018262000b43565b508091505092915050565b600062000c29838362000b54565b905092915050565b6000602082019050919050565b600062000c4b8262000a09565b62000c57818562000a14565b93508360208202850162000c6b8562000a25565b8060005b8581101562000cad578484038952815162000c8b858262000c1b565b945062000c988362000c31565b925060208a0199505060018101905062000c6f565b50829750879550505050505092915050565b6000602082019050818103600083015262000cdb818462000c3e565b905092915050565b6000604051905090565b600080fd5b600080fd5b600080fd5b600080fd5b7f4e487b7100000000000000000000000000000000000000000000000000000000600052604160045260246000fd5b62000d3b8262000aa2565b810181811067ffffffffffffffff8211171562000d5d5762000d5c62000d01565b5b80604052505050565b600062000d7262000ce3565b905062000d80828262000d30565b919050565b600067ffffffffffffffff82111562000da35762000da262000d01565b5b62000dae8262000aa2565b9050602081019050919050565b82818337600083830152505050565b600062000de162000ddb8462000d85565b62000d66565b90508281526020810184848401111562000e005762000dff62000cfc565b5b62000e0d84828562000dbb565b509392505050565b600082601f83011262000e2d5762000e2c62000cf7565b5b813562000e3f84826020860162000dca565b91505092915050565b62000e538162000b39565b811462000e5f57600080fd5b50565b60008135905062000e738162000e48565b92915050565b60008060008060008060c0878903121562000e995762000e9862000ced565b5b600087013567ffffffffffffffff81111562000eba5762000eb962000cf2565b5b62000ec889828a0162000e15565b965050602087013567ffffffffffffffff81111562000eec5762000eeb62000cf2565b5b62000efa89828a0162000e15565b955050604062000f0d89828a0162000e62565b945050606062000f2089828a0162000e62565b935050608062000f3389828a0162000e62565b92505060a062000f4689828a0162000e62565b9150509295509295509295565b62000f5e8162000b14565b811462000f6a57600080fd5b50565b60008135905062000f7e8162000f53565b92915050565b60006020828403121562000f9d5762000f9c62000ced565b5b600062000fad8482850162000f6d565b91505092915050565b600081519050919050565b600082825260208201905092915050565b6000819050602082019050919050565b6000819050919050565b60006200100d62001007620010018462000af4565b62000fe2565b62000af4565b9050919050565b6000620010218262000fec565b9050919050565b6000620010358262001014565b9050919050565b620010478162001028565b82525050565b60006200105b83836200103c565b60208301905092915050565b6000602082019050919050565b6000620010818262000fb6565b6200108d818562000fc1565b93506200109a8362000fd2565b8060005b83811015620010d1578151620010b588826200104d565b9750620010c28362001067565b9250506001810190506200109e565b5085935050505092915050565b60006020820190508181036000830152620010fa818462001074565b905092915050565b6200110d8162000a35565b82525050565b60006020820190506200112a600083018462001102565b92915050565b6200113b8162000a35565b81146200114757600080fd5b50565b6000813590506200115b8162001130565b92915050565b6000602082840312156200117a576200117962000ced565b5b60006200118a848285016200114a565b91505092915050565b600061010083016000830151620011ae600086018262000a3f565b5060208301518482036020860152620011c8828262000ab3565b91505060408301518482036040860152620011e4828262000ab3565b9150506060830151620011fb606086018262000b28565b50608083015162001210608086018262000b43565b5060a08301516200122560a086018262000b43565b5060c08301516200123a60c086018262000b43565b5060e08301516200124f60e086018262000b43565b508091505092915050565b6000602082019050818103600083015262001276818462001193565b905092915050565b7f4e487b7100000000000000000000000000000000000000000000000000000000600052601160045260246000fd5b6000620012ba8262000a35565b9150620012c78362000a35565b9250827fffffffffffffffffffffffffffffffffffffffffffffffffffffffffffffffff03821115620012ff57620012fe6200127e565b5b828201905092915050565b7f4e487b7100000000000000000000000000000000000000000000000000000000600052602260045260246000fd5b600060028204905060018216806200135257607f821691505b6020821081036200136857620013676200130a565b5b50919050565b7f4e487b7100000000000000000000000000000000000000000000000000000000600052603260045260246000fd5b6000620013aa8262000a35565b91507fffffffffffffffffffffffffffffffffffffffffffffffffffffffffffffffff8203620013df57620013de6200127e565b5b60018201905091905056fe60806040523480156200001157600080fd5b5060405162004685380380620046858339818101604052810190620000379190620001d5565b6040518060400160405280600981526020017f4d656d6f72696e646100000000000000000000000000000000000000000000008152506040518060400160405280600381526020017f4d454d00000000000000000000000000000000000000000000000000000000008152508160009080519060200190620000bb929190620000e5565b508060019080519060200190620000d4929190620000e5565b50505080600781905550506200026b565b828054620000f39062000236565b90600052602060002090601f01602090048101928262000117576000855562000163565b82601f106200013257805160ff191683800117855562000163565b8280016001018555821562000163579182015b828111156200016257825182559160200191906001019062000145565b5b50905062000172919062000176565b5090565b5b808211156200019157600081600090555060010162000177565b5090565b600080fd5b6000819050919050565b620001af816200019a565b8114620001bb57600080fd5b50565b600081519050620001cf81620001a4565b92915050565b600060208284031215620001ee57620001ed62000195565b5b6000620001fe84828501620001be565b91505092915050565b7f4e487b7100000000000000000000000000000000000000000000000000000000600052602260045260246000fd5b600060028204905060018216806200024f57607f821691505b60208210810362000265576200026462000207565b5b50919050565b61440a806200027b6000396000f3fe6080604052600436106101815760003560e01c80637ccf3119116100d1578063b88d4fde1161008a578063e985e9c511610064578063e985e9c5146105c2578063e99f1ca7146105ff578063ef27d1d214610628578063fcfffcd11461066557610181565b8063b88d4fde14610533578063bc468acd1461055c578063c87b56dd1461058557610181565b80637ccf31191461041e57806384b275c31461044757806393c8fd651461047257806395d89b41146104b457806397806112146104df578063a22cb4651461050a57610181565b8063095ea7b31161013e57806342842e0e1161011857806342842e0e146103505780636352211e1461037957806370a08231146103b6578063790108f4146103f357610181565b8063095ea7b3146102c157806323b872dd146102ea5780632c3071551461031357610181565b806301033db51461018657806301ffc9a7146101af57806303e96fe3146101ec57806306fdde031461021757806307858c4614610242578063081812fc14610284575b600080fd5b34801561019257600080fd5b506101ad60048036038101906101a891906129c5565b610681565b005b3480156101bb57600080fd5b506101d660048036038101906101d19190612a5d565b61081b565b6040516101e39190612a99565b60405180910390f35b3480156101f857600080fd5b506102016108fd565b60405161020e9190612c3d565b60405180910390f35b34801561022357600080fd5b5061022c610a41565b6040516102399190612cf8565b60405180910390f35b34801561024e57600080fd5b5061026960048036038101906102649190612d1a565b610ad3565b60405161027b96959493929190612d65565b60405180910390f35b34801561029057600080fd5b506102ab60048036038101906102a69190612d1a565b610b6c565b6040516102b89190612dc6565b60405180910390f35b3480156102cd57600080fd5b506102e860048036038101906102e39190612e0d565b610bf1565b005b3480156102f657600080fd5b50610311600480360381019061030c9190612e4d565b610d08565b005b34801561031f57600080fd5b5061033a60048036038101906103359190612d1a565b610d68565b6040516103479190612ea0565b60405180910390f35b34801561035c57600080fd5b5061037760048036038101906103729190612e4d565b610f20565b005b34801561038557600080fd5b506103a0600480360381019061039b9190612d1a565b610f40565b6040516103ad9190612dc6565b60405180910390f35b3480156103c257600080fd5b506103dd60048036038101906103d89190612ebb565b610ff1565b6040516103ea9190612ea0565b60405180910390f35b3480156103ff57600080fd5b506104086110a8565b6040516104159190613012565b60405180910390f35b34801561042a57600080fd5b506104456004803603810190610440919061324f565b6111ec565b005b34801561045357600080fd5b5061045c611234565b6040516104699190612ea0565b60405180910390f35b34801561047e57600080fd5b5061049960048036038101906104949190612d1a565b61123a565b6040516104ab96959493929190612d65565b60405180910390f35b3480156104c057600080fd5b506104c96112d3565b6040516104d69190612cf8565b60405180910390f35b3480156104eb57600080fd5b506104f4611365565b6040516105019190612dc6565b60405180910390f35b34801561051657600080fd5b50610531600480360381019061052c91906132be565b61138b565b005b34801561053f57600080fd5b5061055a6004803603810190610555919061339f565b6113a1565b005b34801561056857600080fd5b50610583600480360381019061057e91906129c5565b611403565b005b34801561059157600080fd5b506105ac60048036038101906105a79190612d1a565b61159d565b6040516105b99190612cf8565b60405180910390f35b3480156105ce57600080fd5b506105e960048036038101906105e49190613422565b6116ee565b6040516105f69190612a99565b60405180910390f35b34801561060b57600080fd5b5061062660048036038101906106219190613462565b611782565b005b34801561063457600080fd5b5061064f600480360381019061064a9190612d1a565b6117ae565b60405161065c9190612ea0565b60405180910390f35b61067f600480360381019061067a9190612d1a565b61184c565b005b600061068c82610d68565b9050821515600b82815481106106a5576106a46134a2565b5b906000526020600020906006020160050160009054906101000a900460ff16151514610706576040517f08c379a00000000000000000000000000000000000000000000000000000000081526004016106fd90613543565b60405180910390fd5b3373ffffffffffffffffffffffffffffffffffffffff16600b8281548110610731576107306134a2565b5b906000526020600020906006020160030160009054906101000a900473ffffffffffffffffffffffffffffffffffffffff1673ffffffffffffffffffffffffffffffffffffffff16146107b9576040517f08c379a00000000000000000000000000000000000000000000000000000000081526004016107b0906135d5565b60405180910390fd5b82600b82815481106107ce576107cd6134a2565b5b906000526020600020906006020160050160006101000a81548160ff021916908315150217905550821561080b57610806600a611a75565b610816565b610815600a611ad1565b5b505050565b60007f80ac58cd000000000000000000000000000000000000000000000000000000007bffffffffffffffffffffffffffffffffffffffffffffffffffffffff1916827bffffffffffffffffffffffffffffffffffffffffffffffffffffffff191614806108e657507f5b5e139f000000000000000000000000000000000000000000000000000000007bffffffffffffffffffffffffffffffffffffffffffffffffffffffff1916827bffffffffffffffffffffffffffffffffffffffffffffffffffffffff1916145b806108f657506108f582611ae7565b5b9050919050565b6060600b805480602002602001604051908101604052809291908181526020016000905b82821015610a3857838290600052602060002090600602016040518060c001604052908160008201548152602001600182015481526020016002820160009054906101000a900473ffffffffffffffffffffffffffffffffffffffff1673ffffffffffffffffffffffffffffffffffffffff1673ffffffffffffffffffffffffffffffffffffffff1681526020016003820160009054906101000a900473ffffffffffffffffffffffffffffffffffffffff1673ffffffffffffffffffffffffffffffffffffffff1673ffffffffffffffffffffffffffffffffffffffff168152602001600482015481526020016005820160009054906101000a900460ff16151515158152505081526020019060010190610921565b50505050905090565b606060008054610a5090613624565b80601f0160208091040260200160405190810160405280929190818152602001828054610a7c90613624565b8015610ac95780601f10610a9e57610100808354040283529160200191610ac9565b820191906000526020600020905b815481529060010190602001808311610aac57829003601f168201915b5050505050905090565b600e8181548110610ae357600080fd5b90600052602060002090600602016000915090508060000154908060010154908060020160009054906101000a900473ffffffffffffffffffffffffffffffffffffffff16908060030160009054906101000a900473ffffffffffffffffffffffffffffffffffffffff16908060040154908060050160009054906101000a900460ff16905086565b6000610b7782611b51565b610bb6576040517f08c379a0000000000000000000000000000000000000000000000000000000008152600401610bad906136c7565b60405180910390fd5b6004600083815260200190815260200160002060009054906101000a900473ffffffffffffffffffffffffffffffffffffffff169050919050565b6000610bfc82610f40565b90508073ffffffffffffffffffffffffffffffffffffffff168373ffffffffffffffffffffffffffffffffffffffff1603610c6c576040517f08c379a0000000000000000000000000000000000000000000000000000000008152600401610c6390613759565b60405180910390fd5b8073ffffffffffffffffffffffffffffffffffffffff16610c8b611bbd565b73ffffffffffffffffffffffffffffffffffffffff161480610cba5750610cb981610cb4611bbd565b6116ee565b5b610cf9576040517f08c379a0000000000000000000000000000000000000000000000000000000008152600401610cf0906137eb565b60405180910390fd5b610d038383611bc5565b505050565b610d19610d13611bbd565b82611c7e565b610d58576040517f08c379a0000000000000000000000000000000000000000000000000000000008152600401610d4f9061387d565b60405180910390fd5b610d63838383611d5c565b505050565b6000610d726128df565b60005b600b80549050811015610edf5783600b8281548110610d9757610d966134a2565b5b90600052602060002090600602016000015403610ecc57600b8181548110610dc257610dc16134a2565b5b90600052602060002090600602016040518060c001604052908160008201548152602001600182015481526020016002820160009054906101000a900473ffffffffffffffffffffffffffffffffffffffff1673ffffffffffffffffffffffffffffffffffffffff1673ffffffffffffffffffffffffffffffffffffffff1681526020016003820160009054906101000a900473ffffffffffffffffffffffffffffffffffffffff1673ffffffffffffffffffffffffffffffffffffffff1673ffffffffffffffffffffffffffffffffffffffff168152602001600482015481526020016005820160009054906101000a900460ff16151515158152505091508092505050610f1b565b8080610ed7906138cc565b915050610d75565b506040517f08c379a0000000000000000000000000000000000000000000000000000000008152600401610f1290613960565b60405180910390fd5b919050565b610f3b838383604051806020016040528060008152506113a1565b505050565b6000806002600084815260200190815260200160002060009054906101000a900473ffffffffffffffffffffffffffffffffffffffff169050600073ffffffffffffffffffffffffffffffffffffffff168173ffffffffffffffffffffffffffffffffffffffff1603610fe8576040517f08c379a0000000000000000000000000000000000000000000000000000000008152600401610fdf906139f2565b60405180910390fd5b80915050919050565b60008073ffffffffffffffffffffffffffffffffffffffff168273ffffffffffffffffffffffffffffffffffffffff1603611061576040517f08c379a000000000000000000000000000000000000000000000000000000000815260040161105890613a84565b60405180910390fd5b600360008373ffffffffffffffffffffffffffffffffffffffff1673ffffffffffffffffffffffffffffffffffffffff168152602001908152602001600020549050919050565b6060600e805480602002602001604051908101604052809291908181526020016000905b828210156111e357838290600052602060002090600602016040518060c001604052908160008201548152602001600182015481526020016002820160009054906101000a900473ffffffffffffffffffffffffffffffffffffffff1673ffffffffffffffffffffffffffffffffffffffff1673ffffffffffffffffffffffffffffffffffffffff1681526020016003820160009054906101000a900473ffffffffffffffffffffffffffffffffffffffff1673ffffffffffffffffffffffffffffffffffffffff1673ffffffffffffffffffffffffffffffffffffffff168152602001600482015481526020016005820160009054906101000a900460ff161515151581525050815260200190600101906110cc565b50505050905090565b60005b8181101561122e5761121b84828151811061120d5761120c6134a2565b5b602002602001015184611fc2565b8080611226906138cc565b9150506111ef565b50505050565b60075481565b600b818154811061124a57600080fd5b90600052602060002090600602016000915090508060000154908060010154908060020160009054906101000a900473ffffffffffffffffffffffffffffffffffffffff16908060030160009054906101000a900473ffffffffffffffffffffffffffffffffffffffff16908060040154908060050160009054906101000a900460ff16905086565b6060600180546112e290613624565b80601f016020809104026020016040519081016040528092919081815260200182805461130e90613624565b801561135b5780601f106113305761010080835404028352916020019161135b565b820191906000526020600020905b81548152906001019060200180831161133e57829003601f168201915b5050505050905090565b600860009054906101000a900473ffffffffffffffffffffffffffffffffffffffff1681565b61139d611396611bbd565b8383612180565b5050565b6113b26113ac611bbd565b83611c7e565b6113f1576040517f08c379a00000000000000000000000000000000000000000000000000000000081526004016113e89061387d565b60405180910390fd5b6113fd848484846122ec565b50505050565b600061140e826117ae565b9050821515600e8281548110611427576114266134a2565b5b906000526020600020906006020160050160009054906101000a900460ff16151514611488576040517f08c379a000000000000000000000000000000000000000000000000000000000815260040161147f90613b16565b60405180910390fd5b3373ffffffffffffffffffffffffffffffffffffffff16600e82815481106114b3576114b26134a2565b5b906000526020600020906006020160030160009054906101000a900473ffffffffffffffffffffffffffffffffffffffff1673ffffffffffffffffffffffffffffffffffffffff161461153b576040517f08c379a000000000000000000000000000000000000000000000000000000000815260040161153290613ba8565b60405180910390fd5b82600e82815481106115505761154f6134a2565b5b906000526020600020906006020160050160006101000a81548160ff021916908315150217905550821561158d57611588600d611a75565b611598565b611597600d611ad1565b5b505050565b60606115a882611b51565b6115e7576040517f08c379a00000000000000000000000000000000000000000000000000000000081526004016115de90613c3a565b60405180910390fd5b600060066000848152602001908152602001600020805461160790613624565b80601f016020809104026020016040519081016040528092919081815260200182805461163390613624565b80156116805780601f1061165557610100808354040283529160200191611680565b820191906000526020600020905b81548152906001019060200180831161166357829003601f168201915b505050505090506000611691612348565b905060008151036116a65781925050506116e9565b6000825111156116db5780826040516020016116c3929190613c96565b604051602081830303815290604052925050506116e9565b6116e48461235f565b925050505b919050565b6000600560008473ffffffffffffffffffffffffffffffffffffffff1673ffffffffffffffffffffffffffffffffffffffff16815260200190815260200160002060008373ffffffffffffffffffffffffffffffffffffffff1673ffffffffffffffffffffffffffffffffffffffff16815260200190815260200160002060009054906101000a900460ff16905092915050565b60005b818110156117a95761179683612406565b80806117a1906138cc565b915050611785565b505050565b600080600090505b600e8054905081101561180b5782600e82815481106117d8576117d76134a2565b5b906000526020600020906006020160000154036117f85780915050611847565b8080611803906138cc565b9150506117b6565b506040517f08c379a000000000000000000000000000000000000000000000000000000000815260040161183e90613d06565b60405180910390fd5b919050565b6000611857826117ae565b905060011515600e8281548110611871576118706134a2565b5b906000526020600020906006020160050160009054906101000a900460ff161515146118d2576040517f08c379a00000000000000000000000000000000000000000000000000000000081526004016118c990613d72565b60405180910390fd5b600e81815481106118e6576118e56134a2565b5b9060005260206000209060060201600401543414611939576040517f08c379a000000000000000000000000000000000000000000000000000000000815260040161193090613e04565b60405180910390fd5b600e818154811061194d5761194c6134a2565b5b906000526020600020906006020160030160009054906101000a900473ffffffffffffffffffffffffffffffffffffffff1673ffffffffffffffffffffffffffffffffffffffff166108fc349081150290604051600060405180830381858888f193505050501580156119c4573d6000803e3d6000fd5b5033600e82815481106119da576119d96134a2565b5b906000526020600020906006020160030160006101000a81548173ffffffffffffffffffffffffffffffffffffffff021916908373ffffffffffffffffffffffffffffffffffffffff1602179055506000600e8281548110611a3f57611a3e6134a2565b5b906000526020600020906006020160050160006101000a81548160ff021916908315150217905550611a71600d611ad1565b5050565b60008160000154905060008111611ac1576040517f08c379a0000000000000000000000000000000000000000000000000000000008152600401611ab890613e70565b60405180910390fd5b6001810382600001819055505050565b6001816000016000828254019250508190555050565b60007f01ffc9a7000000000000000000000000000000000000000000000000000000007bffffffffffffffffffffffffffffffffffffffffffffffffffffffff1916827bffffffffffffffffffffffffffffffffffffffffffffffffffffffff1916149050919050565b60008073ffffffffffffffffffffffffffffffffffffffff166002600084815260200190815260200160002060009054906101000a900473ffffffffffffffffffffffffffffffffffffffff1673ffffffffffffffffffffffffffffffffffffffff1614159050919050565b600033905090565b816004600083815260200190815260200160002060006101000a81548173ffffffffffffffffffffffffffffffffffffffff021916908373ffffffffffffffffffffffffffffffffffffffff160217905550808273ffffffffffffffffffffffffffffffffffffffff16611c3883610f40565b73ffffffffffffffffffffffffffffffffffffffff167f8c5be1e5ebec7d5bd14f71427d1e84f3dd0314c0f7b2291e5b200ac8c7c3b92560405160405180910390a45050565b6000611c8982611b51565b611cc8576040517f08c379a0000000000000000000000000000000000000000000000000000000008152600401611cbf90613f02565b60405180910390fd5b6000611cd383610f40565b90508073ffffffffffffffffffffffffffffffffffffffff168473ffffffffffffffffffffffffffffffffffffffff161480611d4257508373ffffffffffffffffffffffffffffffffffffffff16611d2a84610b6c565b73ffffffffffffffffffffffffffffffffffffffff16145b80611d535750611d5281856116ee565b5b91505092915050565b8273ffffffffffffffffffffffffffffffffffffffff16611d7c82610f40565b73ffffffffffffffffffffffffffffffffffffffff1614611dd2576040517f08c379a0000000000000000000000000000000000000000000000000000000008152600401611dc990613f94565b60405180910390fd5b600073ffffffffffffffffffffffffffffffffffffffff168273ffffffffffffffffffffffffffffffffffffffff1603611e41576040517f08c379a0000000000000000000000000000000000000000000000000000000008152600401611e3890614026565b60405180910390fd5b611e4c8383836125bd565b611e57600082611bc5565b6001600360008573ffffffffffffffffffffffffffffffffffffffff1673ffffffffffffffffffffffffffffffffffffffff1681526020019081526020016000206000828254611ea79190614046565b925050819055506001600360008473ffffffffffffffffffffffffffffffffffffffff1673ffffffffffffffffffffffffffffffffffffffff1681526020019081526020016000206000828254611efe919061407a565b92505081905550816002600083815260200190815260200160002060006101000a81548173ffffffffffffffffffffffffffffffffffffffff021916908373ffffffffffffffffffffffffffffffffffffffff160217905550808273ffffffffffffffffffffffffffffffffffffffff168473ffffffffffffffffffffffffffffffffffffffff167fddf252ad1be2c89b69c2b068fc378daa952ba7f163c4a11628f55a4df523b3ef60405160405180910390a4611fbd8383836125c2565b505050565b611fcc6009611ad1565b6000611fd860096125c7565b905060006040518060c001604052808381526020016007548152602001600860009054906101000a900473ffffffffffffffffffffffffffffffffffffffff1673ffffffffffffffffffffffffffffffffffffffff168152602001600860009054906101000a900473ffffffffffffffffffffffffffffffffffffffff1673ffffffffffffffffffffffffffffffffffffffff168152602001848152602001600115158152509050600b819080600181540180825580915050600190039060005260206000209060060201600090919091909150600082015181600001556020820151816001015560408201518160020160006101000a81548173ffffffffffffffffffffffffffffffffffffffff021916908373ffffffffffffffffffffffffffffffffffffffff16021790555060608201518160030160006101000a81548173ffffffffffffffffffffffffffffffffffffffff021916908373ffffffffffffffffffffffffffffffffffffffff1602179055506080820151816004015560a08201518160050160006101000a81548160ff021916908315150217905550505050505050565b8173ffffffffffffffffffffffffffffffffffffffff168373ffffffffffffffffffffffffffffffffffffffff16036121ee576040517f08c379a00000000000000000000000000000000000000000000000000000000081526004016121e59061411c565b60405180910390fd5b80600560008573ffffffffffffffffffffffffffffffffffffffff1673ffffffffffffffffffffffffffffffffffffffff16815260200190815260200160002060008473ffffffffffffffffffffffffffffffffffffffff1673ffffffffffffffffffffffffffffffffffffffff16815260200190815260200160002060006101000a81548160ff0219169083151502179055508173ffffffffffffffffffffffffffffffffffffffff168373ffffffffffffffffffffffffffffffffffffffff167f17307eab39ab6107e8899845ad3d59bd9653f200f220920489ca2b5937696c31836040516122df9190612a99565b60405180910390a3505050565b6122f7848484611d5c565b612303848484846125d5565b612342576040517f08c379a0000000000000000000000000000000000000000000000000000000008152600401612339906141ae565b60405180910390fd5b50505050565b606060405180602001604052806000815250905090565b606061236a82611b51565b6123a9576040517f08c379a00000000000000000000000000000000000000000000000000000000081526004016123a090614240565b60405180910390fd5b60006123b3612348565b905060008151116123d357604051806020016040528060008152506123fe565b806123dd8461275c565b6040516020016123ee929190613c96565b6040516020818303038152906040525b915050919050565b612410600c611ad1565b60006040518060c00160405280612427600c6125c7565b81526020016007548152602001600860009054906101000a900473ffffffffffffffffffffffffffffffffffffffff1673ffffffffffffffffffffffffffffffffffffffff168152602001600860009054906101000a900473ffffffffffffffffffffffffffffffffffffffff1673ffffffffffffffffffffffffffffffffffffffff168152602001838152602001600115158152509050600e819080600181540180825580915050600190039060005260206000209060060201600090919091909150600082015181600001556020820151816001015560408201518160020160006101000a81548173ffffffffffffffffffffffffffffffffffffffff021916908373ffffffffffffffffffffffffffffffffffffffff16021790555060608201518160030160006101000a81548173ffffffffffffffffffffffffffffffffffffffff021916908373ffffffffffffffffffffffffffffffffffffffff1602179055506080820151816004015560a08201518160050160006101000a81548160ff02191690831515021790555050505050565b505050565b505050565b600081600001549050919050565b60006125f68473ffffffffffffffffffffffffffffffffffffffff166128bc565b1561274f578373ffffffffffffffffffffffffffffffffffffffff1663150b7a0261261f611bbd565b8786866040518563ffffffff1660e01b815260040161264194939291906142b5565b6020604051808303816000875af192505050801561267d57506040513d601f19601f8201168201806040525081019061267a9190614316565b60015b6126ff573d80600081146126ad576040519150601f19603f3d011682016040523d82523d6000602084013e6126b2565b606091505b5060008151036126f7576040517f08c379a00000000000000000000000000000000000000000000000000000000081526004016126ee906141ae565b60405180910390fd5b805181602001fd5b63150b7a0260e01b7bffffffffffffffffffffffffffffffffffffffffffffffffffffffff1916817bffffffffffffffffffffffffffffffffffffffffffffffffffffffff191614915050612754565b600190505b949350505050565b6060600082036127a3576040518060400160405280600181526020017f300000000000000000000000000000000000000000000000000000000000000081525090506128b7565b600082905060005b600082146127d55780806127be906138cc565b915050600a826127ce9190614372565b91506127ab565b60008167ffffffffffffffff8111156127f1576127f0613039565b5b6040519080825280601f01601f1916602001820160405280156128235781602001600182028036833780820191505090505b5090505b600085146128b05760018261283c9190614046565b9150600a8561284b91906143a3565b6030612857919061407a565b60f81b81838151811061286d5761286c6134a2565b5b60200101907effffffffffffffffffffffffffffffffffffffffffffffffffffffffffffff1916908160001a905350600a856128a99190614372565b9450612827565b8093505050505b919050565b6000808273ffffffffffffffffffffffffffffffffffffffff163b119050919050565b6040518060c001604052806000815260200160008152602001600073ffffffffffffffffffffffffffffffffffffffff168152602001600073ffffffffffffffffffffffffffffffffffffffff168152602001600081526020016000151581525090565b6000604051905090565b600080fd5b600080fd5b60008115159050919050565b61296c81612957565b811461297757600080fd5b50565b60008135905061298981612963565b92915050565b6000819050919050565b6129a28161298f565b81146129ad57600080fd5b50565b6000813590506129bf81612999565b92915050565b600080604083850312156129dc576129db61294d565b5b60006129ea8582860161297a565b92505060206129fb858286016129b0565b9150509250929050565b60007fffffffff0000000000000000000000000000000000000000000000000000000082169050919050565b612a3a81612a05565b8114612a4557600080fd5b50565b600081359050612a5781612a31565b92915050565b600060208284031215612a7357612a7261294d565b5b6000612a8184828501612a48565b91505092915050565b612a9381612957565b82525050565b6000602082019050612aae6000830184612a8a565b92915050565b600081519050919050565b600082825260208201905092915050565b6000819050602082019050919050565b612ae98161298f565b82525050565b600073ffffffffffffffffffffffffffffffffffffffff82169050919050565b6000612b1a82612aef565b9050919050565b612b2a81612b0f565b82525050565b612b3981612957565b82525050565b60c082016000820151612b556000850182612ae0565b506020820151612b686020850182612ae0565b506040820151612b7b6040850182612b21565b506060820151612b8e6060850182612b21565b506080820151612ba16080850182612ae0565b5060a0820151612bb460a0850182612b30565b50505050565b6000612bc68383612b3f565b60c08301905092915050565b6000602082019050919050565b6000612bea82612ab4565b612bf48185612abf565b9350612bff83612ad0565b8060005b83811015612c30578151612c178882612bba565b9750612c2283612bd2565b925050600181019050612c03565b5085935050505092915050565b60006020820190508181036000830152612c578184612bdf565b905092915050565b600081519050919050565b600082825260208201905092915050565b60005b83811015612c99578082015181840152602081019050612c7e565b83811115612ca8576000848401525b50505050565b6000601f19601f8301169050919050565b6000612cca82612c5f565b612cd48185612c6a565b9350612ce4818560208601612c7b565b612ced81612cae565b840191505092915050565b60006020820190508181036000830152612d128184612cbf565b905092915050565b600060208284031215612d3057612d2f61294d565b5b6000612d3e848285016129b0565b91505092915050565b612d508161298f565b82525050565b612d5f81612b0f565b82525050565b600060c082019050612d7a6000830189612d47565b612d876020830188612d47565b612d946040830187612d56565b612da16060830186612d56565b612dae6080830185612d47565b612dbb60a0830184612a8a565b979650505050505050565b6000602082019050612ddb6000830184612d56565b92915050565b612dea81612b0f565b8114612df557600080fd5b50565b600081359050612e0781612de1565b92915050565b60008060408385031215612e2457612e2361294d565b5b6000612e3285828601612df8565b9250506020612e43858286016129b0565b9150509250929050565b600080600060608486031215612e6657612e6561294d565b5b6000612e7486828701612df8565b9350506020612e8586828701612df8565b9250506040612e96868287016129b0565b9150509250925092565b6000602082019050612eb56000830184612d47565b92915050565b600060208284031215612ed157612ed061294d565b5b6000612edf84828501612df8565b91505092915050565b600081519050919050565b600082825260208201905092915050565b6000819050602082019050919050565b60c082016000820151612f2a6000850182612ae0565b506020820151612f3d6020850182612ae0565b506040820151612f506040850182612b21565b506060820151612f636060850182612b21565b506080820151612f766080850182612ae0565b5060a0820151612f8960a0850182612b30565b50505050565b6000612f9b8383612f14565b60c08301905092915050565b6000602082019050919050565b6000612fbf82612ee8565b612fc98185612ef3565b9350612fd483612f04565b8060005b83811015613005578151612fec8882612f8f565b9750612ff783612fa7565b925050600181019050612fd8565b5085935050505092915050565b6000602082019050818103600083015261302c8184612fb4565b905092915050565b600080fd5b7f4e487b7100000000000000000000000000000000000000000000000000000000600052604160045260246000fd5b61307182612cae565b810181811067ffffffffffffffff821117156130905761308f613039565b5b80604052505050565b60006130a3612943565b90506130af8282613068565b919050565b600067ffffffffffffffff8211156130cf576130ce613039565b5b602082029050602081019050919050565b600080fd5b600080fd5b600067ffffffffffffffff82111561310557613104613039565b5b61310e82612cae565b9050602081019050919050565b82818337600083830152505050565b600061313d613138846130ea565b613099565b905082815260208101848484011115613159576131586130e5565b5b61316484828561311b565b509392505050565b600082601f83011261318157613180613034565b5b813561319184826020860161312a565b91505092915050565b60006131ad6131a8846130b4565b613099565b905080838252602082019050602084028301858111156131d0576131cf6130e0565b5b835b8181101561321757803567ffffffffffffffff8111156131f5576131f4613034565b5b808601613202898261316c565b855260208501945050506020810190506131d2565b5050509392505050565b600082601f83011261323657613235613034565b5b813561324684826020860161319a565b91505092915050565b6000806000606084860312156132685761326761294d565b5b600084013567ffffffffffffffff81111561328657613285612952565b5b61329286828701613221565b93505060206132a3868287016129b0565b92505060406132b4868287016129b0565b9150509250925092565b600080604083850312156132d5576132d461294d565b5b60006132e385828601612df8565b92505060206132f48582860161297a565b9150509250929050565b600067ffffffffffffffff82111561331957613318613039565b5b61332282612cae565b9050602081019050919050565b600061334261333d846132fe565b613099565b90508281526020810184848401111561335e5761335d6130e5565b5b61336984828561311b565b509392505050565b600082601f83011261338657613385613034565b5b813561339684826020860161332f565b91505092915050565b600080600080608085870312156133b9576133b861294d565b5b60006133c787828801612df8565b94505060206133d887828801612df8565b93505060406133e9878288016129b0565b925050606085013567ffffffffffffffff81111561340a57613409612952565b5b61341687828801613371565b91505092959194509250565b600080604083850312156134395761343861294d565b5b600061344785828601612df8565b925050602061345885828601612df8565b9150509250929050565b600080604083850312156134795761347861294d565b5b6000613487858286016129b0565b9250506020613498858286016129b0565b9150509250929050565b7f4e487b7100000000000000000000000000000000000000000000000000000000600052603260045260246000fd5b7f4572726f723a20596f752063616e6e6f74206368616e6765207469636b65742060008201527f737461746520746f207468652073616d65207374617465000000000000000000602082015250565b600061352d603783612c6a565b9150613538826134d1565b604082019050919050565b6000602082019050818103600083015261355c81613520565b9050919050565b7f4572726f723a2043616e6e6f74206368616e6765207469636b65742073616c6560008201527f2073746174652c2077726f6e6720757365720000000000000000000000000000602082015250565b60006135bf603283612c6a565b91506135ca82613563565b604082019050919050565b600060208201905081810360008301526135ee816135b2565b9050919050565b7f4e487b7100000000000000000000000000000000000000000000000000000000600052602260045260246000fd5b6000600282049050600182168061363c57607f821691505b60208210810361364f5761364e6135f5565b5b50919050565b7f4552433732313a20617070726f76656420717565727920666f72206e6f6e657860008201527f697374656e7420746f6b656e0000000000000000000000000000000000000000602082015250565b60006136b1602c83612c6a565b91506136bc82613655565b604082019050919050565b600060208201905081810360008301526136e0816136a4565b9050919050565b7f4552433732313a20617070726f76616c20746f2063757272656e74206f776e6560008201527f7200000000000000000000000000000000000000000000000000000000000000602082015250565b6000613743602183612c6a565b915061374e826136e7565b604082019050919050565b6000602082019050818103600083015261377281613736565b9050919050565b7f4552433732313a20617070726f76652063616c6c6572206973206e6f74206f7760008201527f6e6572206e6f7220617070726f76656420666f7220616c6c0000000000000000602082015250565b60006137d5603883612c6a565b91506137e082613779565b604082019050919050565b60006020820190508181036000830152613804816137c8565b9050919050565b7f4552433732313a207472616e736665722063616c6c6572206973206e6f74206f60008201527f776e6572206e6f7220617070726f766564000000000000000000000000000000602082015250565b6000613867603183612c6a565b91506138728261380b565b604082019050919050565b600060208201905081810360008301526138968161385a565b9050919050565b7f4e487b7100000000000000000000000000000000000000000000000000000000600052601160045260246000fd5b60006138d78261298f565b91507fffffffffffffffffffffffffffffffffffffffffffffffffffffffffffffffff82036139095761390861389d565b5b600182019050919050565b7f5469636b6574206e6f7420666f756e6400000000000000000000000000000000600082015250565b600061394a601083612c6a565b915061395582613914565b602082019050919050565b600060208201905081810360008301526139798161393d565b9050919050565b7f4552433732313a206f776e657220717565727920666f72206e6f6e657869737460008201527f656e7420746f6b656e0000000000000000000000000000000000000000000000602082015250565b60006139dc602983612c6a565b91506139e782613980565b604082019050919050565b60006020820190508181036000830152613a0b816139cf565b9050919050565b7f4552433732313a2062616c616e636520717565727920666f7220746865207a6560008201527f726f206164647265737300000000000000000000000000000000000000000000602082015250565b6000613a6e602a83612c6a565b9150613a7982613a12565b604082019050919050565b60006020820190508181036000830152613a9d81613a61565b9050919050565b7f4572726f723a20596f752063616e6e6f74206368616e6765206d656d2073746160008201527f746520746f207468652073616d65207374617465000000000000000000000000602082015250565b6000613b00603483612c6a565b9150613b0b82613aa4565b604082019050919050565b60006020820190508181036000830152613b2f81613af3565b9050919050565b7f4572726f723a2043616e6e6f74206368616e6765206d656d2073616c6520737460008201527f6174652c2077726f6e6720757365720000000000000000000000000000000000602082015250565b6000613b92602f83612c6a565b9150613b9d82613b36565b604082019050919050565b60006020820190508181036000830152613bc181613b85565b9050919050565b7f45524337323155524953746f726167653a2055524920717565727920666f722060008201527f6e6f6e6578697374656e7420746f6b656e000000000000000000000000000000602082015250565b6000613c24603183612c6a565b9150613c2f82613bc8565b604082019050919050565b60006020820190508181036000830152613c5381613c17565b9050919050565b600081905092915050565b6000613c7082612c5f565b613c7a8185613c5a565b9350613c8a818560208601612c7b565b80840191505092915050565b6000613ca28285613c65565b9150613cae8284613c65565b91508190509392505050565b7f4d656d6f72696e6461206e6f7420666f756e6400000000000000000000000000600082015250565b6000613cf0601383612c6a565b9150613cfb82613cba565b602082019050919050565b60006020820190508181036000830152613d1f81613ce3565b9050919050565b7f4572726f723a204d656d6f72696e6461206973206e6f74206f6e2073616c652e600082015250565b6000613d5c602083612c6a565b9150613d6782613d26565b602082019050919050565b60006020820190508181036000830152613d8b81613d4f565b9050919050565b7f4572726f723a205061796d656e74206973206e6f7420657175616c20746f206d60008201527f656d20636f73742e000000000000000000000000000000000000000000000000602082015250565b6000613dee602883612c6a565b9150613df982613d92565b604082019050919050565b60006020820190508181036000830152613e1d81613de1565b9050919050565b7f436f756e7465723a2064656372656d656e74206f766572666c6f770000000000600082015250565b6000613e5a601b83612c6a565b9150613e6582613e24565b602082019050919050565b60006020820190508181036000830152613e8981613e4d565b9050919050565b7f4552433732313a206f70657261746f7220717565727920666f72206e6f6e657860008201527f697374656e7420746f6b656e0000000000000000000000000000000000000000602082015250565b6000613eec602c83612c6a565b9150613ef782613e90565b604082019050919050565b60006020820190508181036000830152613f1b81613edf565b9050919050565b7f4552433732313a207472616e736665722066726f6d20696e636f72726563742060008201527f6f776e6572000000000000000000000000000000000000000000000000000000602082015250565b6000613f7e602583612c6a565b9150613f8982613f22565b604082019050919050565b60006020820190508181036000830152613fad81613f71565b9050919050565b7f4552433732313a207472616e7366657220746f20746865207a65726f2061646460008201527f7265737300000000000000000000000000000000000000000000000000000000602082015250565b6000614010602483612c6a565b915061401b82613fb4565b604082019050919050565b6000602082019050818103600083015261403f81614003565b9050919050565b60006140518261298f565b915061405c8361298f565b92508282101561406f5761406e61389d565b5b828203905092915050565b60006140858261298f565b91506140908361298f565b9250827fffffffffffffffffffffffffffffffffffffffffffffffffffffffffffffffff038211156140c5576140c461389d565b5b828201905092915050565b7f4552433732313a20617070726f766520746f2063616c6c657200000000000000600082015250565b6000614106601983612c6a565b9150614111826140d0565b602082019050919050565b60006020820190508181036000830152614135816140f9565b9050919050565b7f4552433732313a207472616e7366657220746f206e6f6e20455243373231526560008201527f63656976657220696d706c656d656e7465720000000000000000000000000000602082015250565b6000614198603283612c6a565b91506141a38261413c565b604082019050919050565b600060208201905081810360008301526141c78161418b565b9050919050565b7f4552433732314d657461646174613a2055524920717565727920666f72206e6f60008201527f6e6578697374656e7420746f6b656e0000000000000000000000000000000000602082015250565b600061422a602f83612c6a565b9150614235826141ce565b604082019050919050565b600060208201905081810360008301526142598161421d565b9050919050565b600081519050919050565b600082825260208201905092915050565b600061428782614260565b614291818561426b565b93506142a1818560208601612c7b565b6142aa81612cae565b840191505092915050565b60006080820190506142ca6000830187612d56565b6142d76020830186612d56565b6142e46040830185612d47565b81810360608301526142f6818461427c565b905095945050505050565b60008151905061431081612a31565b92915050565b60006020828403121561432c5761432b61294d565b5b600061433a84828501614301565b91505092915050565b7f4e487b7100000000000000000000000000000000000000000000000000000000600052601260045260246000fd5b600061437d8261298f565b91506143888361298f565b92508261439857614397614343565b5b828204905092915050565b60006143ae8261298f565b91506143b98361298f565b9250826143c9576143c8614343565b5b82820690509291505056fea2646970667358221220f5cd32e10d585f9fd04230af30edc731adb95e87bdcb607d6f33190356b06fc264736f6c634300080d0033a26469706673582212202d3ceeab136842097e642355339ff0fd09cfdd1af59d7d5f79de91af0027561c64736f6c634300080d0033",
  "immutableReferences": {},
  "source": "// SPDX-License-Identifier: MIT\npragma solidity ^0.8.4;\n\nimport \"@openzeppelin/contracts/utils/Counters.sol\";\nimport \"@openzeppelin/contracts/token/ERC721/extensions/ERC721URIStorage.sol\";\nimport \"@openzeppelin/contracts/token/ERC721/ERC721.sol\";\n\ncontract EventFactory {\n\n    using Counters for Counters.Counter;\n    Counters.Counter private _eventID;//keep track of event ids\n\n    struct eventProperties {\n        uint256 _eventID;\n        string _eventName;\n        string _eventDescription;\n        address _eventAdress;\n        int _longtitude;\n        int _latitude;\n        int _eventTimestamp;\n        int _eventCapacity;\n    }\n\n    mapping(uint256 => eventProperties) private idToEvent;\n\n    mapping(address => Event[]) private organizerToEvent;\n\n    function createEvent( string memory eventName, string memory eventDescription, int longtitude, int latitude, int eventTimestamp, int eventCapacity) public {\n        _eventID.increment();\n        uint256 currEventID = _eventID.current();\n        Event newEvent = new Event(currEventID);\n        idToEvent[currEventID] = eventProperties({\n            _eventID: currEventID,\n            _eventName: eventName,\n            _eventDescription: eventDescription,\n            _eventAdress: address(newEvent),\n            _longtitude: longtitude,\n            _latitude: latitude,\n            _eventTimestamp: eventTimestamp,\n            _eventCapacity: eventCapacity\n        });\n\n        organizerToEvent[msg.sender].push(newEvent);\n\n    }\n\n    function deployedEventsLength() public view returns (uint256) {\n        uint totalEvents = _eventID.current();\n\n        return totalEvents;\n    }\n\n    function getDeployedEvents() public view  returns (eventProperties[] memory) {\n        uint256 totalEvents = _eventID.current();\n        eventProperties[] memory events = new eventProperties[](totalEvents);\n        for (uint i=0; i<totalEvents; i++) {\n            events[i] = idToEvent[i+1];\n        }\n        return events;\n    }\n\n    function getEventsByOrganizer(address organizerAddress) public view returns(Event[] memory) {\n        return organizerToEvent[organizerAddress];\n    }\n\n    function getEventsByID(uint256 eventID) public view returns(eventProperties memory) {\n        return idToEvent[eventID];\n    }\n\n\n\n\n}\n\ncontract Event is ERC721URIStorage {\n\n    uint256 public _eventID;\n    address public _organizerAddress;\n    using Counters for Counters.Counter;\n    Counters.Counter private _ticketIds;\n    Counters.Counter private _ticketsSold;\n    Ticket[] public _ticketList;\n\n    struct Ticket {\n        uint _ticketID;\n        uint _eventID;\n        address _organizer;\n        address _owner;\n        uint _ticketCost;\n        bool _onSale;\n    }\n    //name description capacity eventdate location price\n\n    constructor (uint256 eventID) ERC721(\"Memorinda\", \"MEM\") {\n        _eventID = eventID;\n    }\n\n    /*\n        TICKET FUNCTIONS\n    */\n    function createTicketsByAmount(string[] memory tokenURI, uint ticketCost, uint ticketAmount) public {\n        for (uint i = 0; i < ticketAmount; i++)\n        {\n            createTicket(tokenURI[i], ticketCost);\n        }\n    }\n\n    //create a single ticket\n    function createTicket(string memory tokenURI, uint ticketCost) private {\n        _ticketIds.increment();\n        uint256 newTokenId = _ticketIds.current();\n        Ticket memory newTicket = Ticket({\n            _ticketID: newTokenId,\n            _eventID: _eventID,\n            _organizer: _organizerAddress,//owner is manager of the vent at ticket creation\n            _owner: _organizerAddress,\n            _ticketCost: ticketCost,\n            _onSale: true\n        });\n        //_mint(msg.sender, newTokenId);\n        //_setTokenURI(newTokenId, tokenURI);\n        _ticketList.push(newTicket);\n    }\n\n    // function buy_ticket(uint ticketID) public payable\n    // {\n    //     uint foundTicketIndex = getTicketIndexById(ticketID);\n\n    //     require(_ticketList[foundTicketIndex]._onSale == true, \"Error: Ticket is not on sale.\");//check if buyer can buy the ticket\n    //     require(msg.value == _ticketList[foundTicketIndex]._ticketCost, \"Error: Ticket payment is not equal to ticket cost.\");\n\n    //     payable(_ticketList[foundTicketIndex]._owner).transfer(msg.value);//transfer money to current owner\n    //     _ticketList[foundTicketIndex]._owner = msg.sender;//change owner to buyer\n    //     _ticketList[foundTicketIndex]._onSale = false;\n    //     _ticketsSold.increment();\n    // }\n\n    function setTicketSale(bool saleFlag, uint ticketID) public {\n        uint foundTicketIndex = getTicketIndexById(ticketID);\n\n        require(_ticketList[foundTicketIndex]._onSale == saleFlag, \"Error: You cannot change ticket state to the same state\");//restriced checks it\n        require(_ticketList[foundTicketIndex]._owner == msg.sender, \"Error: Cannot change ticket sale state, wrong user\");//restriced checks it\n\n        _ticketList[foundTicketIndex]._onSale = saleFlag;\n\n        if (saleFlag) {\n            _ticketsSold.decrement();\n        } else {\n            _ticketsSold.increment();\n        }\n    }\n\n    function getAllTickets() public view returns(Ticket[] memory) {\n        return _ticketList;\n    }\n\n    // //this is used instead of returning ticket, because solidity does not allow editing storage variable with memory variable. or I didnt manage it\n    function getTicketIndexById(uint ticketID) public view returns(uint){\n        Ticket memory foundTicket;\n         for (uint i = 0; i < _ticketList.length; i++) {//find ticket index by id\n            if(_ticketList[i]._ticketID == ticketID)\n            {\n                foundTicket = _ticketList[i];\n                return i;\n            }\n        }\n\n        revert(\"Ticket not found\");\n    }\n\n    /*\n        MEMORINDA FUNCTIONS\n    */\n    Counters.Counter private _memorindaIds;\n    Counters.Counter private _memorindaSold;\n    Memorinda[] public _memorindaList;\n\n    struct Memorinda {\n        uint _memID;\n        uint _eventID;\n        address _organizer;\n        address _owner;\n        uint _memCost;\n        bool _onSale;\n    }\n\n    function createMemorindaByAmount(uint price, uint amount) public {\n        for (uint i = 0; i < amount; i++)\n        {\n            createMemorinda(price);\n        }\n    }\n\n    //create a single ticket\n    function createMemorinda(uint price) private {\n        _memorindaIds.increment();\n        Memorinda memory newMemorinda = Memorinda({\n            _memID: _memorindaIds.current(),\n            _eventID: _eventID,\n            _organizer: _organizerAddress,//owner is manager of the vent at mem creation\n            _owner: _organizerAddress,\n            _memCost: price,\n            _onSale: true\n        });\n\n        _memorindaList.push(newMemorinda);\n    }\n\n    function buy_memorinda(uint memorindaID) public payable\n    {\n        uint foundMemorindaIndex = getMemorindaIndexById(memorindaID);\n\n        require(_memorindaList[foundMemorindaIndex]._onSale == true, \"Error: Memorinda is not on sale.\");//check if buyer can buy the ticket\n        require(msg.value == _memorindaList[foundMemorindaIndex]._memCost, \"Error: Payment is not equal to mem cost.\");\n\n        payable(_memorindaList[foundMemorindaIndex]._owner).transfer(msg.value);//transfer money to current owner\n        _memorindaList[foundMemorindaIndex]._owner = msg.sender;//change owner to buyer\n        _memorindaList[foundMemorindaIndex]._onSale = false;\n        _memorindaSold.increment();\n    }\n\n    function setMemorindaSale(bool saleFlag, uint ticketID) public {\n        uint foundMemorindaIndex = getMemorindaIndexById(ticketID);\n\n        require(_memorindaList[foundMemorindaIndex]._onSale == saleFlag, \"Error: You cannot change mem state to the same state\");//restriced checks it\n        require(_memorindaList[foundMemorindaIndex]._owner == msg.sender, \"Error: Cannot change mem sale state, wrong user\");//restriced checks it\n\n        _memorindaList[foundMemorindaIndex]._onSale = saleFlag;\n\n        if (saleFlag) {\n            _memorindaSold.decrement();\n        } else {\n            _memorindaSold.increment();\n        }\n    }\n\n    function getAllMemorindas() public view returns(Memorinda[] memory) {\n        return _memorindaList;\n    }\n\n    //this is used instead of returning ticket, because solidity does not allow editing storage variable with memory variable. or I didnt manage it\n    function getMemorindaIndexById(uint memorindaID) public view returns(uint){\n         for (uint i = 0; i < _memorindaList.length; i++) {//find ticket index by id\n            if(_memorindaList[i]._memID == memorindaID)\n            {\n                return i;\n            }\n        }\n        revert(\"Memorinda not found\");\n    }\n}",
  "sourcePath": "/Users/mertture/Desktop/Courses/4.1/CS48K1/memorinda/ethereum/contracts/EventFactory.sol",
  "compiler": {
    "name": "solc",
    "version": "0.8.13+commit.abaa5c0e.Emscripten.clang"
  },
  "schemaVersion": "3.4.7",
  "updatedAt": "2022-05-15T01:55:59.884Z",
  "networkType": "ethereum",
  "devdoc": {
    "kind": "dev",
    "methods": {},
    "version": 1
  },
  "userdoc": {
    "kind": "user",
    "methods": {},
    "version": 1
  }
}